:100000000C94FA070C9441080C9441080C94410894
:100010000C9441080C9441080C9441080C9441083C
:100020000C9441080C9441080C947C310C944E3291
:100030000C94D02B0C9441080C9441080C9441086A
:100040000C9441080C9441080C9441080C9441080C
:100050000C9441080C94292C0C9441080C944108F0
:100060000C9441080C9441080C9441080C944108EC
:100070000C9441080C9441080C9441080C944108DC
:100080000C9441080C9441080C9441080C944108CC
:100090000C9441080C9441080C9441080C944108BC
:1000A0000C9441080C9441080C944108660F540FBD
:1000B0006D0FB60D42104210510F421042109A0FB0
:1000C0004210AE0F22104210421042104210DE0FBA
:1000D00042104210CB0F4210860F421042103C10CB
:1000E0003C103C103C103C103C103C103C103C10B0
:1000F0003E104210660F490F42104210421042104B
:100100004210421042104210421042103E10421063
:100110004210510F42103A103A103A103A103A1069
:100120003A103A103A103A103E1039193C19441955
:1001300049194E19531958195D19621967196C1923
:1001400071197319761979197C197F198219841913
:1001500089192421242156215621A321D722D722CF
:10016000D722C121562267226722C722D722D7224F
:10017000D02273237323852385237C238523852322
:100180008523732373238123852385238123BB3216
:10019000E232DA33E232DA332E335133DA33A83350
:1001A000B733165C1E001F00200021002200230030
:1001B00024002500260027002D002E002A002B00F9
:1001C00014001A000800150017001C0018000C008D
:1001D000120013002F0030003100E0000400160070
:1001E000070009000A000B000D000E000F0033008D
:1001F000340000002800E100E1001D001B000600A3
:1002000019000500110010003600370038000151B8
:10021000E500E300E200E300000000002C410000E4
:10022000000000002A00E700E700E600E4003500D7
:100230003A003B003C003D003E003F0040004100D2
:10024000420043004400450001000100C05CC15C65
:10025000C25C010001000100010001000100010079
:10026000520001004C000100BF5CBE5C4F00010069
:1002700001005000510052004F0050004F0000009C
:10028000AE000100010001000100010001002C008E
:10029000010001000100010051000100A90001005E
:1002A000010001000000000001000000000000004B
:1002B00001000100AC00AA00AB0044454255473A9A
:1002C0002064697361626C65642E0A00444542557E
:1002D000473A20656E61626C65642E0A000A00254B
:1002E00030313662003A200025303258000A722F31
:1002F0006320303132333435363738394142434464
:1003000045460A003F00433E20004C25640A007425
:10031000696D65725F72656164333228293A202500
:1003200030346C580A006B65796D61705F636F6E75
:100330006669672E6E6B726F3A2025580A006B65EE
:1003400079626F6172645F69646C653A2025580A4E
:10035000006B6579626F6172645F70726F746F6356
:100360006F6C3A2025580A00686F73745F6B65796B
:10037000626F6172645F6C65647328293A20255846
:100380000A000A092D20537461747573202D0A0028
:100390004743433A20352E342E30204156522D4CBF
:1003A0004942433A20322E302E30204156525F418E
:1003B0005243483A20617672350A004F5054494FF3
:1003C0004E533A204C5546412045585452414B45D6
:1003D0005920434F4E534F4C4520434F4D4D414EB6
:1003E00044204E4B524F20343039360A0042554992
:1003F0004C443A2020284D6179202034203230327C
:1004000031290A005649443A203078464545442867
:1004100048616E204368656E29205049443A203077
:10042000783630363628414D4A36302920564552E6
:100430003A203078303030310A000A092D205665D4
:100440007273696F6E202D0A000A092D20436F6EAA
:10045000736F6C65202D0A4553432F713A097175EE
:1004600069740A000A092D204D61676963202D0A0D
:10047000443A094465627567204D65737361676529
:1004800020546F67676C650A583A094D6174726948
:1004900078204465627567204D6F646520546F67EE
:1004A000676C65202D2053686F77206B65797072BB
:1004B000657373657320696E206D6174726978204D
:1004C000677269640A4B3A094B6579626F617264BD
:1004D00020446562756720546F67676C65202D2026
:1004E00053686F77206B65797072657373207265DE
:1004F000706F72740A4D3A094465627567204D6FDA
:1005000075736520546F67676C650A563A095665BE
:100510007273696F6E0A533A095374617475730A82
:10052000433A09416374697661746520436F6E7361
:100530006F6C65204D6F64650A46312D4631303A47
:100540000953776974636820746F204C6179657210
:1005500020302D392028463130203D204C30290ACA
:10056000302D393A0953776974636820746F204CD1
:100570006179657220302D390A47524156453A0952
:1005800053776974636820746F204C6179657220B9
:10059000302028616C7465726E617465290A423A74
:1005A000094A756D7020746F20426F6F746C6F61B3
:1005B0006465720A4553433A094A756D7020746F39
:1005C00020426F6F746C6F616465722028616C7477
:1005D00065726E617465290A453A095072696E74D4
:1005E00020454550524F4D2053657474696E6773B2
:1005F0000A4253504143453A09436C6561722045B4
:100600004550524F4D0A4E3A094E4B524F20546FAF
:1006100067676C650A000A002575002E6C657665B3
:100620006C3A20000A002575002E656E61626C65CB
:100630003A20000A0025303258006261636B6C6911
:100640006768745F636F6E6669672E7261773A20C0
:10065000000A002575002E6E6B726F3A20000A00AA
:100660002575002E737761705F6261636B736C61D7
:1006700073685F6261636B73706163653A20000A3F
:10068000002575002E737761705F67726176655F14
:100690006573633A20000A002575002E6E6F5F6750
:1006A00075693A20000A002575002E737761705F26
:1006B00072616C745F726775693A20000A00257573
:1006C000002E737761705F6C616C745F6C67756925
:1006D0003A20000A002575002E737761705F7263FF
:1006E000746C5F726775693A20000A002575002EE8
:1006F000737761705F6C63746C5F6C6775693A20C7
:10070000000A002575002E636170736C6F636B5F68
:10071000746F5F636F6E74726F6C3A20000A00250D
:1007200075002E737761705F636F6E74726F6C5FAC
:10073000636170736C6F636B3A20000A002530327E
:1007400058006B65796D61705F636F6E6669672EC7
:100750007261773A20000A002575002E6D6F75735F
:10076000653A20000A002575002E6B6579626F617D
:1007700072643A20000A002575002E6D617472695A
:10078000783A20000A002575002E656E61626C655E
:100790003A20000A00253032580064656275675FB0
:1007A000636F6E6669672E7261773A20000A0025D2
:1007B000750064656661756C745F6C617965723A29
:1007C00020003F004E4B524F3A206F66660A004EA3
:1007D0004B524F3A206F6E0A000A6D6F7573653A7F
:1007E000206F66660A000A6D6F7573653A206F6E3A
:1007F0000A000A6B6579626F6172643A206F6666FF
:100800000A000A6B6579626F6172643A206F6E0A42
:10081000000A6D61747269783A206F66660A000A90
:100820006D61747269783A206F6E0A000A646562BD
:1008300075673A206F66660A000A64656275673AF2
:10084000206F6E0A000A0A4A756D70696E6720741F
:100850006F20626F6F746C6F616465722E2E2E2034
:1008600000433E2000436C656172696E6720454518
:1008700050524F4D0A006565636F6E6669673A0AAC
:10088000007267626C696768742074696D657220B4
:1008900064697361626C652E0A007267626C6967D5
:1008A00068742074696D657220656E61626C656440
:1008B0002E0A007267626C69676874207365742021
:1008C000687376205B4E4F454550524F4D5D3A2040
:1008D00025752C25752C25750A007267626C696771
:1008E00068742073657420687376205B45455052A8
:1008F0004F4D5D3A2025752C25752C25750A007203
:1009000067626C69676874207261696E626F7720D4
:10091000736574206873763A2025642C25642C2531
:10092000642C25750A007267626C696768742064BC
:10093000697361626C65205B454550524F4D5D3A6D
:10094000207267626C696768745F636F6E6669675F
:100950002E656E61626C65203D2025750A00726708
:10096000626C6967687420656E61626C65205B45C6
:100970004550524F4D5D3A207267626C69676874EA
:100980005F636F6E6669672E656E61626C65203DA0
:100990002025750A007267626C6967687420746F3D
:1009A00067676C65205B454550524F4D5D3A20723C
:1009B00067626C696768745F636F6E6669672E65EE
:1009C0006E61626C65203D2025750A007267626C5D
:1009D00069676874206D6F6465205B4E4F454550B4
:1009E000524F4D5D3A2025750A007267626C696747
:1009F0006874206D6F6465205B454550524F4D5DB6
:100A00003A2025750A007267626C696768745F69CD
:100A10006E6974207267626C696768745F636F6E79
:100A20006669672E6D6F6465203D20302E205772F9
:100A30006974652064656661756C742076616C7597
:100A4000657320746F20454550524F4D2E0A007239
:100A500067626C696768745F696E69742065656355
:100A60006F6E666967206973206E6F7420656E61B2
:100A7000626C65642E0A007267626C696768745FF5
:100A8000696E6974207374617274210A00726762FE
:100A90006C696768745F696E69742063616C6C650A
:100AA000642E0A007267626C696768745F636F6EB8
:100AB0006669672E7370656564203D2025640A00B1
:100AC0007267626C696768745F636F6E6669672ED0
:100AD00076616C203D2025640A007267626C69674C
:100AE00068745F636F6E6669672E736174203D2062
:100AF00025640A007267626C696768745F636F6E71
:100B00006669672E687565203D2025640A00726756
:100B1000686C696768745F636F6E6669672E6D6F76
:100B20006465203D2025640A007267626C6967680D
:100B3000745F636F6E6669672E656E61626C6520B7
:100B40003D2025640A007267626C696768745F63A0
:100B50006F6E66696720454550524F4D3A0A001E38
:100B60000F0500047F3F1F643214643214783C1E6A
:100B70001E140A052223252628292A2C2D2F30323F
:100B8000333536383A3B3D3E4042434547494A4C6F
:100B90004E5051535557595A5C5E6062646668699D
:100BA0006B6D6F71737577797B7D7F8183858789A5
:100BB0008A8C8E90929496989A9C9E9FA1A3A5A7AA
:100BC000A8AAACAEAFB1B3B4B6B8B9BBBCBEBFC1D6
:100BD000C2C3C5C6C7C9CACBCCCDCED0D1D2D2D361
:100BE000D4D5D6D7D7D8D9D9DADADBDBDBDCDCDC75
:100BF000DCDCDDDDDDDDDCDCDCDCDCDBDBDBDADA38
:100C0000D9D9D8D7D7D6D5D4D3D2D2D1D0CECDCCAE
:100C1000CBCAC9C7C6C5C3C2C1BFBEBCBBB9B8B6C3
:100C2000B4B3B1AFAEACAAA8A7A5A3A19F9E9C9A4E
:100C300098969492908E8C8A89878583817F7D7B1C
:100C400079777573716F6D6B6968666462605E5CFD
:100C50005A5957555351504E4C4A494745434240C3
:100C60003E3D3B3A3836353332302F2D2C2A292859
:100C700026252322FFAA7F55406261636B6C69675A
:100C8000687420737465703A2025750A0062616388
:100C90006B6C696768742064697361626C650A00D3
:100CA0006261636B6C6967687420656E61626C6514
:100CB0000A006261636B6C6967687420746F6767B0
:100CC0006C653A2025750A006261636B6C69676820
:100CD000742064656372656173653A2025750A0046
:100CE0006261636B6C6967687420696E63726561C9
:100CF00073653A2025750A00000101010101010117
:100D000001010202020202020202020303030303C0
:100D1000030303040404040404040505050505068F
:100D2000060606060707070707080808080909094D
:100D3000090A0A0A0B0B0B0C0C0C0D0D0D0E0E0EF6
:100D40000F0F0F1010111111121213131414151587
:100D500016161717181819191A1A1B1B1C1D1D1EF9
:100D60001E1F20202122222324242526262728294D
:100D7000292A2B2C2D2D2E2F30313232333435367B
:100D80003738393A3B3C3D3E3F404142434445467B
:100D90004748494A4C4D4E4F505153545556585957
:100DA0005A5B5D5E5F616264656668696B6C6D6FFE
:100DB0007072737577787A7B7D7E80828385878871
:100DC0008A8C8E8F91939596989A9C9EA0A2A3A5AB
:100DD000A7A9ABADAFB1B3B5B7BABCBEC0C2C4C6AC
:100DE000C9CBCDCFD1D4D6D8DBDDDFE2E4E7E9EB68
:100DF000EEF0F3F5F8FAFDFF0A0025303258200036
:100E00006B6579626F6172645F7265706F72743A5C
:100E100020000A0025303258006B6579626F6172DC
:100E2000645F7365745F6C65643A200064656C5F31
:100E30006B65795F6269743A2063616E2774206420
:100E4000656C3A20253032580A006164645F6B6536
:100E5000795F6269743A2063616E2774206164640B
:100E60003A20253032580A005B735D004B65796289
:100E70006F6172642073746172742E0A005B575D37
:100E8000005B535D005B525D005B445D005B435D56
:100E9000000C0341004D004A0036003000000012F3
:100EA00003480061006E0020004300680065006E8A
:100EB0000000000403090409025B00030100A0FA1A
:100EC00009040000010301010009211101000122B0
:100ED00040000705810308000A090401000103001E
:100EE0000000092111010001226D00070582032085
:100EF000000A090402000203000000092111010098
:100F000001222200070583032000010705030320B7
:100F100000011201100100000008EDFE66600100F2
:100F2000010200010631FF0974A1010975150026AF
:100F3000FF009520750881020976150026FF0095AF
:100F40002075089102C005010980A10185031901DE
:100F50002AB700150126B700950175108100C0055C
:100F60000C0901A101850419012AA002150126A07E
:100F700002950175108100C005010906A1018505D2
:100F8000050719E029E7150025019508750181027B
:100F90000507190029EF1500250195F0750181025B
:100FA000050819012905950575019102950175033B
:100FB0009101C005010906A101050719E029E715FE
:100FC00000250195087501810295017508810105CB
:100FD00007190029FF150026FF00950675088100F6
:100FE00005081901290595057501910295017503FB
:100FF0009101C00011241FBECFEFDAE0DEBFCDBFEC
:1010000004B603FE27C080912A0390912B03A09180
:101010002C03B0912D038730904BA740B04BD1F4F7
:1010200010922A0310922B0310922C0310922D037E
:1010300014BE84B7877F84BF0FB6F894A8958091BB
:101040006000886180936000109260000FBEE0E055
:10105000F8E3099511E0A0E0B1E0E8EFFAE602C09C
:1010600005900D92A43DB107D9F723E0A4EDB1E0BE
:1010700001C01D92AA32B207E1F70E94AF2E0C9474
:101080007A350C940000FF93EF93E091D401F09136
:10109000D501309709F00995EF91FF910895FC0172
:1010A0008591803011F0EFDFFBCF0895FF27E0E25C
:1010B00030E247FF0CC0419597FF09C0EDE2609513
:1010C000709580959095611D711D811D911D27FF63
:1010D00002C0219530E350E2AA27660F771F881FD0
:1010E000991FAA1FA41710F0A41B63955A95A9F77E
:1010F000AA3008F0A95FA05DAF93F3956115710563
:101100008105910541F7ED3211F4EF93F395F21754
:1011100018F43F93F395FBCF8F91B5DFFA95E1F784
:101120000895E991F9918591803021F0853219F087
:10113000AADFF9CF089520E0E89455915532C1F324
:10114000503311F4689455915A3348F4505390F346
:10115000220F022E220F220F200D250FF4CF0EF4A6
:10116000219589919991533619F3533729F15335C4
:1011700059F1BC0188279927E8945C3621F48991BC
:10118000999168945591543639F446EF7EF077FF83
:101190000DC08FEF9FEF0AC055374AE039F0583540
:1011A00040E121F0523642E009F00895FF93EF93B9
:1011B0007DDFEF91FF91B7CFFF93EF93FC0181911A
:1011C0008030B9F360DFFBCFFF93EF9368DFF1CF9F
:1011D000DF93CF93CDB7DEB72596A3DFCF91DF9115
:1011E000089581E0089581E008950C94F30808952E
:1011F0000C94F7081F93CF93DF9300D000D01F9279
:10120000CDB7DEB749835A836B8330912B02898136
:101210009A81311114C0662359F0222349F00E94AB
:10122000AC28182F682F89819A810E94552803C005
:101230000E948028182F69817A81812F04C00E9422
:10124000AC2869817A810F900F900F900F900F90CA
:10125000DF91CF911F910C940C0AFC01262F408145
:1012600051816281738184810C94FA08CF93DF935A
:10127000EC0160E00E942D09BE01DF91CF910C943A
:10128000F8080E94DE29811102C00E948E2A0E9465
:10129000FC090E94701B0C946F0C0C946B0C08954D
:1012A0000E9461230E944F092FEF84E39CE02150AC
:1012B00080409040E1F700C000000C944F2C0F9349
:1012C0001F93CF93DF93EC0161E00E942D098C0105
:1012D000BE010E94F508882309F450C0BE01C80170
:1012E0000E94D91A882309F449C0BE01C8010E948E
:1012F0001E1C882309F442C0BE01C8010E94701C54
:101300008823E1F1BE01C8010E949B1D8823B1F131
:10131000BE01C8010E942219882381F18A81882395
:1013200031F101308CE5180751F00F3D8CE51807BD
:10133000D9F001151C45D9F40E9450091FC08091B5
:10134000BE02C82FC095C170C0FB80F98093BE0259
:10135000CC2329F08CEC92E00E944F080FC08AEB5E
:1013600092E00E944F080BC00E948E2A07C0CE0157
:10137000DF91CF911F910F910C94F108C0E08C2F59
:10138000DF91CF911F910F9108958295982F9373BC
:1013900044E0949F900111248C7C86958695282B9F
:1013A000822F8575880F2A7A2695822B0895CF93F0
:1013B000DF93D92F0E94C509C82F8D2F0E94C50920
:1013C0002C2F30E0322F2227A901482BCA01DF91B0
:1013D000CF91089508950C94EA0981E00895CF9380
:1013E000C82F0E94ED09882329F0C1FD02C02A9A66
:1013F00001C02A98CF910895229A2A9A0895CF93EE
:10140000C82F0E94EB098C2F0E94EF09CF910895FD
:1014100080E090E00895089526E4829FC0011124A1
:10142000FC012EE0729FE00DF11D1124E60FF11D6D
:10143000EE0FFF1FEE55FE4F859194910895880F92
:10144000991FFC01E352FD4F859194910895CF932C
:10145000DF930E940C0A0E94390BEC018115904524
:1014600008F043C0C11580E4D80708F0CBC0C03EE7
:10147000D10528F5C03CD10508F0B3C0C83AD10564
:1014800078F4C53AD10508F0A4C0C130D10509F4FB
:10149000ECC008F4E8C0C430D10508F0E6C0E3C0F1
:1014A000CF3BD10508F0DFC0C85AD0E0CC0FDD1F1C
:1014B000CC5DDE4F0990D881C02DD464D6C0C11553
:1014C00090E2D90750F4C11521E0D20708F0CDC051
:1014D000C83ED10508F4C9C0C6C0C11580E3D8070D
:1014E00008F086C0CE019F707FC0C11595E5D90771
:1014F00008F043C0C11524E5D20708F09AC0C11511
:1015000082E5D80708F5C11591E5D90708F07DC037
:10151000CE0174E0969587957A95E1F783709C2FBC
:10152000937021E030E002C0220F331F9A95E2F75A
:101530003C68382BCF70C695C69580E2C89FE00105
:101540001124C22BD32B91C09E01237033278C2FE3
:1015500086958695C115D34508F05CC0C1E0D0E002
:1015600002C0CC0FDD1F2A95E2F720E2829FC00166
:101570001124C82BD92BDC6878C0C11529E5D20706
:10158000A0F4C11588E5D80708F058C0C11596E544
:10159000D90708F068C08C2F0E94CD0B8F71C82F1F
:1015A000D0E0DC2FCC27D06260C0C1152AE5D2077D
:1015B00008F449C0CE0190568115904208F053C0FE
:1015C0008D2F8F710E94CD0BDD27D0628F71D82BAC
:1015D0004CC0C55AD0E0CE5ADE4FC881D0E0D064AE
:1015E00044C0CE01805C91090E941F0AEC013DC0FD
:1015F000CE019927D3FF03C0EC01D86C36C0EC01B3
:10160000D06C33C0DF70D06A30C0DC2FCC27C16F04
:10161000D06A2BC0C1E0D0E002C0CC0FDD1F2A95FC
:10162000E2F720E2829FC0011124C82BD92BDA688F
:101630001CC0DC2FCC27C46FD06A17C0DC2FCC278E
:10164000C06FD06A12C08C2F8F700E94CD0B94E0B7
:10165000D695C7959A95E1F7CF70D0E0DC2FCC27CF
:10166000D069C82B02C0C0E0D0E0CE01DF91CF919D
:1016700008958238910569F1B0F48133910509F438
:101680006DC048F48932910509F463C08A3291052E
:1016900009F469C008958533910509F455C089336B
:1016A0009105B9F00895833E910569F138F4803EC3
:1016B0009105B1F0823E910509F10895863E9105AC
:1016C000A9F1873E9105B9F1843E910509F064C006
:1016D00023C020911B0320FD4FC021FD4DC0089564
:1016E00080911B0380FD44C080911C0380FF44C097
:1016F00080911B0384FD42C083EE4DC080911B038B
:1017000082FF38C0F5CF80911B0382FD33C08091EA
:101710001C0380FD31C0ECCF80911C0381FF32C0DF
:1017200080911B0384FD2AC087EE35C080911B0386
:1017300083FF26C0F5CF80911B0383FD21C08091DC
:101740001C0381FD1FC0ECCF80911B0385FD1CC0D5
:101750001DC080911B0385FD19C016C080911B031D
:1017600086FD16C017C080911B0386FD13C010C0F4
:1017700089E311C082EE0FC080EE0DC080E00BC087
:1017800086EE09C084EE07C089E205C085E303C088
:101790008AE201C081E390E0089590911B0392FFDB
:1017A0000DC0282F2871283019F4877F846006C067
:1017B000282F2471243011F48B7F886093FF0DC093
:1017C000282F2871283119F4877E846106C0282FBC
:1017D0002471243111F48B7E886120911C0320FF39
:1017E0000DC0382F3871383019F4877F816006C0FA
:1017F000382F3171313011F48E7F886021FF0DC098
:10180000282F2871283119F4877E816106C0282F7E
:101810002171213111F48E7E886194FD877E0895B7
:10182000E82FF0E0EE0FFF1FE151FD4F8081918125
:101830000895CF92DF92EF92FF920F931F93CF9371
:10184000DF938DEE92E00E944F088FEEE82E82E04B
:10185000F82EC0E0D0E098EEC92E92E0D92E0FED20
:1018600012E0DF93CF93DF92CF920E94E80885EEDB
:1018700092E00E944F08F701819191917F010E94AF
:10188000D7099F938F931F930F930E94E8088DEDC4
:1018900092E00E944F0821968DB79EB708960FB62A
:1018A000F8949EBF0FBE8DBFC530D105D1F6DF9134
:1018B000CF911F910F91FF90EF90DF90CF900895FF
:1018C00080EA8A95F1F7089500C008950C94600CA1
:1018D00008950C94680C0C94690C0C94680C0C948E
:1018E0006D0CF894E82FE295EF70F0E031A1282F0D
:1018F0002F7081E090E001C0880F2A95EAF7982FB9
:101900009095932391A392A1892B82A37894089513
:101910000F931F93CF93DF9387EF0E94710C86EF95
:101920000E94710C85EF0E94710C84EF0E94710C73
:1019300085E90E94710CC5E5D1E003E611E08991CB
:101940000E94710C0C171D07D1F7E5EEF2E0AFEE27
:10195000B2E0119211921D921D9282E0EF3EF807C3
:10196000C1F785E00E944D0DDF91CF911F910F913E
:101970000C9441097F928F929F92AF92BF92CF9227
:10198000DF92EF92FF920F931F93CF93DF9305EEB9
:1019900012E083E6E82E81E0F82EC0E0D0E0712C62
:1019A000AA24A394B12C4701F7018081F894E82F71
:1019B000E295EF70F0E021A18F70A50102C0440F05
:1019C000551F8A95E2F7CA01922F982B91A392A1F5
:1019D0008095892382A378940E94640CE5E5F1E068
:1019E00020E030E0C12CD12C4191A42FA295AF7002
:1019F000B0E090968C9190E04F7002C095958795DD
:101A00004A95E2F780FD08C0C501022E02C0880F8A
:101A1000991F0A94E2F702C080E090E0C82AD92A10
:101A20002F5F3F4F2E303105F9F65FEFE51AF50ACB
:101A3000F40180810E94710CC430D10511F00E9424
:101A4000660CF80180819181C816D90621F0D182F7
:101A5000C08281E001C080E0782A21960E5F1F4F8E
:101A6000C530D10509F09FCF272D45E06FEE72E01C
:101A700085EE92E00E944E0D0E944D09872DDF9168
:101A8000CF911F910F91FF90EF90DF90CF90BF907B
:101A9000AF909F908F907F9008950895FF920F933D
:101AA0001F93CF93DF93F82E092F162FD72FC42F14
:101AB000222349F081E08093D8010E94022C909368
:101AC000D7018093D6018091D8018823D9F08091E5
:101AD000D6019091D7010E941A2C069798F0EF2D0D
:101AE000F02FA12FBD2F80E090E04C2F50E0841705
:101AF000950734F4219131912D933D930196F7CFC1
:101B00001092D801DF91CF911F910F91FF9008950E
:101B1000CF93C82F1F928F938AE093E09F938F9368
:101B20000E94E80881E090E0A0E0B0E0BC01CD01B7
:101B300004C0660F771F881F991FCA95D2F70E94AD
:101B400057270F900F900F900F90CF910C94612317
:101B5000CF93DF93482F50E0FA013597EF33F1052B
:101B600008F090C2EA5AFF4F0C94733486E798E06D
:101B70000E944F0882EB97E00E944F080E94ED29D7
:101B80001F928F938FEA97E09F938F930E94E808AC
:101B90008DEA97E00E944F080E94E929C82F8AE940
:101BA00097E00E944F081F92CF9385E997E09F939B
:101BB0008F930E94E80883E997E00E944F0889E824
:101BC00097E00E944F088C2F81701F928F9386E8B8
:101BD00097E09F938F930E94E80884E897E00E9423
:101BE0004F088AE797E00E944F08C1FB882780F9D9
:101BF0001F928F9387E797E09F938F930E94E80847
:101C000085E797E00E944F0889E697E00E944F0819
:101C1000C2FB882780F91F928F9386E697E09F93F7
:101C20008F930E94E80884E697E00E944F088BE5B6
:101C300097E00E944F08C3FBCC27C0F91F92CF93B7
:101C400088E597E09F938F930E94E80886E597E0E8
:101C50000E944F080E94F129EC0182E497E00E9463
:101C60004F08DF93CF938DE397E09F938F930E946C
:101C7000E8088BE397E00E944F0882E297E00E9419
:101C80004F088C2F81701F928F938FE197E09F9365
:101C90008F930E94E8088DB79EB780960FB6F89490
:101CA0009EBF0FBE8DBF8DE197E00E944F0886E07A
:101CB00097E00E944F08C1FB882780F91F928F93FD
:101CC00083E097E09F938F930E94E80881E097E07C
:101CD0000E944F088FEE96E00E944F088D2F817072
:101CE0001F928F938CEE96E09F938F930E94E8084B
:101CF0008AEE96E00E944F0888ED96E00E944F0819
:101D0000D695D1701F92DF9385ED96E09F938F93C8
:101D10000E94E80883ED96E00E944F0881EC96E06F
:101D20000E944F08C2FB882780F91F928F938EEB89
:101D300096E09F938F930E94E8088CEB96E00E94B8
:101D40004F088AEA96E00E944F08C3FB882780F973
:101D50001F928F9387EA96E09F938F930E94E808E3
:101D600085EA96E00E944F088BE996E00E944F08B2
:101D7000C4FB882780F91F928F9388E996E09F9390
:101D80008F930E94E80886E996E00E944F0884E855
:101D900096E00E944F08C5FB882780F91F928F9319
:101DA00081E896E09F938F930E94E8088FE796E082
:101DB0000E944F0883E696E00E944F08C6FB8827E2
:101DC00080F91F928F9380E696E09F938F930E94F5
:101DD000E8088DB79EB780960FB6F8949EBF0FBEE9
:101DE0008DBF8EE596E00E944F0886E596E00E9442
:101DF0004F08C7FBCC27C0F91F92CF9383E596E02D
:101E00009F938F930E94E80881E596E00E944F0817
:101E10000E940F2AC82F8AE396E00E944F081F9263
:101E2000CF9385E396E09F938F930E94E80883E326
:101E300096E00E944F0889E296E00E944F088C2F9E
:101E400081701F928F9386E296E09F938F930E94FA
:101E5000E80884E296E00E944F088BE196E00E9439
:101E60004F08C695C695C6951F92CF9388E196E018
:101E70009F938F930E94E80886E196E00E944F08A6
:101E80008DB79EB740960FB6F8949EBF0FBE8DBF1C
:101E900006C085E698E00E944F080E948E2AC1E0A5
:101EA000F6C084E694E074C08091BE02817F8E7F8C
:101EB0008093BE0289E494E00E944F0881E698E096
:101EC0000E944F0881E08093D901E9CF85E498E032
:101ED0000E944F080E945009E2CF8091BE02C82F95
:101EE000C095C170C0FB80F98093BE02CC2319F06D
:101EF00089E398E0B9C08CE298E00E944F08809195
:101F0000BE02897F877F8093BE02C9CF9091BE02B7
:101F100091FBCC27C0F981E0C827892FC0FB81F94C
:101F20008093BE02CC2319F08FE198E027C081E1B5
:101F300098E02EC09091BE0292FBCC27C0F981E0C0
:101F4000C827892FC0FB82F98093BE02CC2319F0E9
:101F500082E098E013C082EF97E01AC09091BE0231
:101F600093FBCC27C0F981E0C827892FC0FB83F9F8
:101F70008093BE02CC2351F086EE97E00E944F087A
:101F80008091BE0281608093BE0281C089ED97E09E
:101F90000E944F0884CF8AE394E00E944F0884E0B7
:101FA00094E00E944F088DEE93E00E944F088BEB67
:101FB00093E00E944F0880E993E0EACF82E893E043
:101FC0000E944F080E94D11D1F928F9388E693E0D4
:101FD0009F938F930E94E808809123011F928F9313
:101FE00081E593E09F938F930E94E8088091E4023B
:101FF0001F928F938EE393E09F938F930E94E80844
:1020000080911B0387FB882780F91F928F9386E2BC
:1020100093E09F938F930E94E8080E940E2C9F9359
:102020008F937F936F938FE093E09F938F930E94A2
:10203000E8088DB79EB746960FB6F8949EBF0FBEC0
:102040008DBF2DCF0E94612390911B0397FBCC275E
:10205000C0F981E0C827892FC0FB87F980931B0353
:10206000CC2329F08FEC97E00E944F0810C084EC3D
:1020700097E08ECF895303C08D5101C080E00E944C
:10208000880D0DCF82EC97E00E944F08C0E08C2FA6
:10209000DF91CF91089580E008950C944B10CF9379
:1020A000C82F8091D901882319F0813031F038C0D0
:1020B0000E942D298232B1F504C00E942D2982325E
:1020C00061F48C2F0E944D10811104C08C2F0E944E
:1020D000A80D24C081E090E021C08C2F0E944B10FD
:1020E00081111BC0C43189F018F4CB3029F010C025
:1020F000C93259F0C83361F489E494E00E944F0872
:1021000086E093E00E944F0808C01092D9010CC0ED
:1021100084E093E00E944F0807C081E0817006C010
:102120001092D90180E002C080E0F8CFCF910895ED
:10213000EF92FF920F931F93CF93DF938B01682F42
:1021400011110AC0442329F0E82FF0E0E850F34FC2
:102150006491762F862F75C0212F30E0E82FF0E0B4
:10216000442321F0E850F34FE491F0E046E0049F6F
:10217000C0011124CFEFD0E0BE010E9429344BEA08
:102180004603C001479F900D1124800F911D800FC1
:10219000911D982F990F890FAE01421B530B4E9F33
:1021A000D0014F9FB00D5E9FB00D11249B2F189F43
:1021B000A0011124452F55278E01041B150B0E9FDE
:1021C000A0010F9F500D1E9F500D11247E01E81A93
:1021D000F108E29E8001E39E100DF29E100D112485
:1021E000212F3327C21BD30BCE9F9001CF9F300DE1
:1021F000DE9F300D112462307105A9F048F461159D
:10220000710569F061307105C9F48B2F752F0DC010
:102210006430710581F058F06630710579F47E2FD5
:102220008B2F932F0DC0832F7B2F9E2F09C08E2FB6
:102230007B2F952F05C08E2F732F02C07E2F852FE9
:10224000692FDF91CF911F910F91FF90EF9008952B
:1022500041E00E949810089508950E942811089561
:10226000CF93DF93762FE901682F842F0E942D11E1
:10227000798368838A83DF91CF9108958091F902F1
:10228000282F269530E02115310519F481708260E0
:1022900005C02B32310524F0817084658093F902EA
:1022A000089588E090E00C941B35CF92DF92EF9276
:1022B000FF926B017C010E943E11B701A60188E0EC
:1022C00090E0FF90EF90DF90CF900C943935E9EFDC
:1022D000F2E083E0808311828FEF82838383148214
:1022E00060817181828193810C9455118091BE022D
:1022F00080FF08C086E49BE09F938F930E94E808CC
:102300000F900F908091BE0280FF0FC08091F90264
:1023100081701F928F9389E29BE09F938F930E941D
:10232000E8080F900F900F900F908091BE0280FFF1
:102330000FC08091F90286951F928F938EE09BE0EB
:102340009F938F930E94E8080F900F900F900F902B
:102350008091BE0280FF0EC08091FA021F928F937F
:1023600084EF9AE09F938F930E94E8080F900F905C
:102370000F900F908091BE0280FF0EC08091FB02F3
:102380001F928F938AED9AE09F938F930E94E808A3
:102390000F900F900F900F908091BE0280FF0EC0A3
:1023A0008091FC021F928F9380EC9AE09F938F9311
:1023B0000E94E8080F900F900F900F908091BE023E
:1023C00080FF0EC08091FD021F928F9384EA9AE0F5
:1023D0009F938F930E94E8080F900F900F900F909B
:1023E00008958091F90280FF02C08695089580E0EB
:1023F00008959091FD02933018F49F5F9093FD0231
:10240000882351F06091F9027091FA028091FB02E9
:102410009091FC020C945511089581E00C94F911EF
:102420009091FD02992319F091509093FD02882319
:1024300051F06091F9027091FA028091FB02909143
:10244000FC020C945511089581E00C94101270E078
:102450000C94801B609108018091F90280FF0AC0F2
:102460008091070123E0829FC001112482509D4F7B
:102470000C9427128091090190910A01891780F725
:10248000E82FF0E09F01220F331FE20FF31FE2500D
:10249000FD4F1182108212828F5FF0CF9091F9026E
:1024A00090FF16C09091090120910A01921770F4D3
:1024B000E92FF0E0DF01AA0FBB1FEA0FFB1FE2507C
:1024C000FD4F8183608342839F5FF0CF0C942A127B
:1024D0000895CF93DF9300D01F92CDB7DEB79091D0
:1024E000F90290FF0AC09E012F5F3F4F0E943011FA
:1024F0004B8169818A810E944E120F900F900F903C
:10250000DF91CF910895CF93DF93EC01EC81F0E060
:10251000EC58F44F4491E9EFF2E0628181810E942E
:1025200069128C818F5F8C83DF91CF910895CF9357
:10253000DF93EC01E9EFF2E0438162818C810E943C
:1025400069128C818F5F8C83DF91CF9108950F93F7
:102550001F93CF93DF9300D01F92CDB7DEB78C01CE
:102560008091DA0181110AC09E012F5F3F4F4FEF2A
:102570006FEF0E9430118A818093DA01F801848123
:10258000813051F028F0823061F44091DA010AC0C4
:102590008091DA0140E007C06091DA0140E080E01C
:1025A00003C040E080E060E00E944E12F8018481A8
:1025B00090E0019663E070E00E943D3484830F90C8
:1025C0000F900F90DF91CF911F910F9108954F922F
:1025D0005F926F927F928F929F92AF92BF92CF92B3
:1025E000DF92EF92FF920F931F93CF93DF9300D070
:1025F0001F92CDB7DEB7F82EB62EE42E622E909144
:10260000F90290FFB4C0E92FE695AE2FB0E0A859CB
:10261000BE4F8C9180930C029E7F923061F49E019C
:102620002F5F3F4F8F2D0E9430114B8169818A812E
:102630000E944E1262C0823019F4E090FC025DC02C
:10264000863019F4F090FA0258C08930D9F38931F4
:1026500009F053C0E9518E2F8170782E81E0A72CAC
:10266000A826E695F0E0EC58F34FC590D490412CA5
:10267000DD249FEF892E98E0992E60910B0146167C
:10268000D0F5042D10E00C9DC0010D9D900D1C9DFA
:10269000900D112470E00E9429345F2C711002C04B
:1026A000560E01C0561A8091BE0280FF11C0DF9203
:1026B000CF921F92AF921F925F921F924F929F9262
:1026C0008F920E94E8080FB6F894DEBF0FBECDBF10
:1026D00080910901080F111D9801220F331F020F6D
:1026E000131F980122503D4F4E2D6B2D852D0E94BA
:1026F00030114394C2CF0E942A12F092FA02B09293
:10270000FB02E092FC026620E9F06091F902709110
:10271000FA028091FB029091FC020E945511809177
:10272000BE0280FF24C08091FC021F928F93809193
:10273000FB021F928F938091FA021F928F938AED72
:1027400098E00CC08091BE0280FF11C01F92EF92F2
:102750001F92BF921F92FF9283EB98E09F938F93FB
:102760000E94E8080FB6F894DEBF0FBECDBF0F90F1
:102770000F900F90DF91CF911F910F91FF90EF90ED
:10278000DF90CF90BF90AF909F908F907F906F9091
:102790005F904F900895E9EFF2E09181282F4381F7
:1027A00062818AE0890F0C94E71281E00C94CB13CC
:1027B000E9EFF2E09181282F4381628186EF890F52
:1027C0000C94E71281E00C94D813E9EFF2E06281F7
:1027D00021E1620F08F46FEF282F438181810C946F
:1027E000E71281E00C94E513E9EFF2E0628121E168
:1027F000621B08F460E0282F438181810C94E7126A
:1028000081E00C94F413E9EFF2E0438121E1420FFF
:1028100008F44FEF282F628181810C94E71281E048
:102820000C940314E9EFF2E0438121E1421B08F428
:1028300040E0282F628181810C94E71281E00C94A2
:10284000121420E00C94E712FF920F931F93CF9382
:10285000DF93EC01F12C0FEF10E060910B01F61605
:10286000F0F4809109012F2D30E0280F311DC901AE
:10287000880F991F280F391F22503D4F70E0C80163
:102880000E943D34962F8C814091FC026091FB02A6
:10289000F99E800D11240E943011F394DECF0E9426
:1028A0002A129A818C8190FF02C08F5F01C08150F3
:1028B0008C83DF91CF911F910F91FF900895BF926C
:1028C000CF92DF92EF92FF920F931F93CF93DF93FC
:1028D000FC01828180FF02C00FEF01C001E010E027
:1028E00080910B01181708F040C080910901C12E9A
:1028F000D12CE601C80FD11DCE01880F991FC80F3A
:10290000D91FC250DD4F198218821A8234E0E32E9B
:10291000F12CB12C8091DC018B0D893014F0877083
:1029200005C087FF03C090910B01890F082E000C92
:10293000990BC816D90691F48091FC028E9DA001D6
:102940008F9D500D112455954795559547959E019E
:102950006091FB028091FA020E943011B00EF1E00A
:10296000EF1AF108B9F61F5FBBCF0E942A128091BF
:10297000DC01013031F4811102C080910B018150E2
:1029800007C090E0019660910B0170E00E943D3419
:102990008093DC01DF91CF911F910F91FF90EF9019
:1029A000DF90CF90BF900895CF93809109019091CF
:1029B0000A01891770F4E82FF0E09F01220F331FFE
:1029C000E20FF31FE250FD4F1182108212828F5FDF
:1029D000F0CFC0E060910B01C617C0F5EC2FF0E01E
:1029E00070E0CF010E943D3420910901820F2091B7
:1029F000DB01022E000C330B90E0E217F307CCF062
:102A000020910601022E000C330B2E173F078CF08D
:102A10009C01220F331F820F931F9C0122503D4FB8
:102A20004091FC026091FB028091FA020E943011F9
:102A30000BC0FC01EE0FFF1F8E0F9F1FFC01E25029
:102A4000FD4F118210821282CF5FC4CF0E942A12E2
:102A5000209105018091DB01820F8093DB01909131
:102A60000601920F9093060119165CF4082E000CD3
:102A7000990B40910B0150E0415051098417950783
:102A80001CF0219520930501CF9108958F929F927C
:102A9000AF92BF92CF92DF92EF92FF920F931F936C
:102AA000CF93DF938C01FC014481C42FD0E09E01C1
:102AB000DE010E9481349B01AC010E9497346B01BE
:102AC0007C01E0E2F0E0EC1BFD0BA5E5B0E09B0132
:102AD000AC010E9497344B015C019F01DF010E9411
:102AE00079349B01AC010E94A2349B01AC012C0DF6
:102AF0003D1D4E1D5F1DC501B4010E945134C22F02
:102B0000D22F2A3228F4F3E02F9F900111240DC018
:102B100025E530E02C1B3109C901880F991F280FCA
:102B2000391F37FF02C02F5F3F4F35952795C22FC2
:102B3000C095F12C85E5E82EED1A80910B01F81671
:102B4000C8F4F1FC02C08E2D01C08D2F90910901B7
:102B50002F2D30E0290F311DA901440F551F240FDF
:102B6000351F22503D4F4C2F6091FB020E943011C7
:102B7000F394E3CF0E942A12F8018481811102C0EC
:102B800091E003C0803219F49FEF9093040190917B
:102B90000401890FF8018483DF91CF911F910F9178
:102BA000FF90EF90DF90CF90BF90AF909F908F906D
:102BB00008950F931F93CF93DF93EC0100E010E093
:102BC00080910B01282F30E00217130724F5909114
:102BD00009019801290F311DA901440F551F240F28
:102BE000351F22503D4F869590E04C8108171907FC
:102BF0001CF4442331F002C0411103C04091FC0297
:102C000001C040E06091FB028091FA020E94301105
:102C10000F5F1F4FD5CF0E942A128C8190E0019642
:102C2000817099278C83DF91CF911F910F91089527
:102C30007F928F929F92AF92BF92CF92DF92EF924C
:102C4000FF920F931F93CF93DF93FC0182807480D8
:102C500081E08483E4E7FBE09490E3EFFBE0E49120
:102C6000A12CF5E0BF2ECC24CA94D12CE9190E2F4B
:102C700010E080910B01A81608F0A2C0EA2CF12CFC
:102C800022E0281568F0BE9CF001BF9CF00D1124D5
:102C9000E352FE4F8091FA0280838091FB02818390
:102CA00071100AC0BE9CF001BF9CF00D1124E352CC
:102CB000FE4F138212826AC0BE9CE001BF9CD00D01
:102CC0001124C352DE4F8B818823F9F081508B830E
:102CD0002FEF829FC00111246C8170E00E94293483
:102CE000FB01FF27EC58F44F8491E82FE9192FEFEF
:102CF000E29FC0011124B8010E9429348091FC0296
:102D0000689FB00111247A8341C00E94F63420915B
:102D1000FC022695215830E0A901440F551F322F9F
:102D20002227240F351F232F33278217930774F58B
:102D300082E0881588F40E94F634B6010E943D3482
:102D400088830E94F6342091FB022695622F70E062
:102D50000E943D34280F2983BE9CF001BF9CF00DDA
:102D60001124E352FE4F12828091FC02843120F044
:102D7000893C18F088EC01C084E1BE9CF001BF9C46
:102D8000F00D1124E352FE4F848383838091090167
:102D90009701280F311DC901880F991F280F391F6E
:102DA00022503D4FBE9CF001BF9CF00D1124E35218
:102DB000FE4F4281618180810E943011A39459CFDE
:102DC000DF91CF911F910F91FF90EF90DF90CF9007
:102DD000BF90AF909F908F907F900C942A1260913B
:102DE000F902669570E04BE050E08CE091E00E94C3
:102DF0000635892B19F481E080930D020E94022C84
:102E000090930602809305028091BE0280FF08C065
:102E10008AE998E09F938F930E94E8080F900F90A3
:102E2000089510920D028091BE0280FF08C081E8D3
:102E300098E09F938F930E94E8080F900F90089559
:102E40009091F90290FF54C09170811102C092607C
:102E500006C08B3210F0946502C0880F982B9093B7
:102E6000F9026623B1F06091F9027091FA02809143
:102E7000FB029091FC020E9455118091BE0280FFDE
:102E80001BC08091F90286951F928F938AEE99E07C
:102E90000BC08091BE0280FF0FC08091F902869521
:102EA0001F928F938CEC99E09F938F930E94E80878
:102EB0000F900F900F900F906091F902669570E05F
:102EC0004BE050E08CE091E00E940635892B19F030
:102ED0000E94111702C00E94EF1681E08093080241
:102EE0004091FC026091FB028091FA020C94211443
:102EF0000895682F9091F902969581E0890F8B32A1
:102F000008F081E00C94201781E00C947917682F69
:102F10009091F90296958FEF890F09F48AE20C944B
:102F2000201781E00C94871761E00C9420178091A2
:102F3000F90281608093F9028091BE0280FF0DC08A
:102F40001F9281E08F938EE599E09F938F930E946B
:102F5000E8080F900F900F900F908091F9028695DE
:102F60000C94941760E00C94201780910B0281114F
:102F700060C08091BE0280FF08C08DE89AE09F93F8
:102F80008F930E94E8080F900F908091BE0280FFFF
:102F900008C087E79AE09F938F930E94E8080F90FC
:102FA0000F900E94DE29811110C08091BE0280FF27
:102FB00008C08FE49AE09F938F930E94E8080F90D7
:102FC0000F900E948E2A0E9467110E9451116093F7
:102FD000F9027093FA028093FB029093FC026E7FD9
:102FE000C1F48091BE0280FF08C086E09AE09F9302
:102FF0008F930E94E8080F900F900E9467110E9423
:1030000051116093F9027093FA028093FB0290933E
:10301000FC020E943E110E94761110920D028091D6
:10302000F90280FF03C086950E94B21781E0809369
:103030000B0208958091F9028E7F8093F9026091CE
:10304000F9027091FA028091FB029091FC020E94B9
:1030500055118091BE0280FF0FC08091F9028170EE
:103060001F928F9386E299E09F938F930E94E808C6
:103070000F900F900F900F900E9411172FEF80E785
:1030800092E0215080409040E1F700C000000C9495
:103090002A128091BE0280FF10C08091F9028095B3
:1030A00081701F928F9385E999E09F938F930E947F
:1030B000E8080F900F900F900F908091F90280FD1B
:1030C0000C941A180C9497170F931F93CF93DF93B8
:1030D00080910D02882309F495C080910C02E09143
:1030E000F902E695E81BE0930702823049F4F0E02C
:1030F000E059F44FE491CE2FD0E003E812E159C03B
:10310000863049F4F0E0E359F44FE491CE2FD0E05B
:1031100007E912E14EC0893051F4E695F0E0E65936
:10312000F44FE491CE2FD0E004E214E142C08F309E
:1031300051F4E695F0E0E959F44FE491CE2FD0E058
:103140000FE514E136C0853149F4F0E0EC59F44F55
:10315000E491CE2FD0E004ED14E12BC08831D9F0FA
:10316000833239F4E2E6FBE0C591D49107EA12E13B
:1031700020C08432A9F08532C1F48E2F63E00E9412
:103180001D34E92FF0E0E15AF44FE491CE2FD0E066
:1031900008E116E10EC0C8E2D0E006E415E109C07E
:1031A000C4EFD1E009ED15E104C0C0EDD7E00CE2B9
:1031B00011E180910802882361F0109208020E94B8
:1031C000022C909306028093050210920A0210923C
:1031D00009020E94022CE0910502F09106028E1B6A
:1031E0009F0B8F3F9F4770F4EC0FFD1FF09306027B
:1031F000E093050285E092E0F801DF91CF911F9105
:103200000F910994DF91CF911F910F910895882319
:1032100011F0FA0101C0FB010994CF93DF93C82F8D
:10322000D62F0E94F1118C1740F00E94F1118D17DA
:1032300020F4DF91CF910C9484178C2FDF91CF91E4
:103240000C9494170F931F93CF93FB01C281CC234F
:1032500009F463C08C010E942D298272F801E35C9D
:10326000FC45E431F10508F059C0EB56FF4F0C94D2
:1032700073340E94491806C041E957E164E877E1D8
:103280000E940719C0E04AC044E857E161E977E1CC
:10329000F7CF42EE53E165ED73E1F2CF45ED53E137
:1032A00062EE73E1EDCF40E054E161EF73E1E8CF0E
:1032B00041EF53E160E074E1E3CF4EE154E16FE0B0
:1032C00074E1DECF4FE054E16EE174E1D9CF44E226
:1032D00052E16DE072E1D4CF4DE052E164E272E17F
:1032E000CFCF81E017C065E082E010C068E086E0E3
:1032F0000DC06EE089E00AC064E18FE007C067E1BD
:1033000085E104C088E106C062E289E10E940D19EE
:10331000B9CF83E20E949417B5CFC1E08C2FCF9133
:103320001F910F9108950E94DE29811102C00E9411
:103330008E2A0E940F2A80931603282F2695269501
:10334000269530E02530310524F087708062809327
:1033500016038091160380FF04C086958695869596
:1033600001C080E00C940E1B20911603822F8695DD
:1033700086958695482F50E04430510554F48F5F70
:10338000982F990F990F990F822F8770892B80930F
:103390001603809116038160809316030E94132AFE
:1033A0008091BE0280FF11C080911603869586959C
:1033B00086951F928F9380EE9CE09F938F930E943F
:1033C000E8080F900F900F900F908091160386954C
:1033D000869586950C940E1B80911603982F9695D2
:1033E00096959695A1F0915E990F990F990F877018
:1033F000892B80931603887F91E009F490E08091F7
:10340000160390FB80F9809316030E94132A809183
:10341000BE0280FF11C08091160386958695869521
:103420001F928F9388EC9CE09F938F930E94E808F3
:103430000F900F900F900F908091160386958695B0
:1034400086950C940E1B8091160380FD1FC0816031
:1034500080931603813019F489E0809316038091DC
:1034600016030E94132A8091BE0280FF08C080EAE2
:103470009CE09F938F930E94E8080F900F9080919B
:1034800016038695869586950C940E1B089580915B
:10349000160380FF14C08E7F809316030E94132AA8
:1034A0008091BE0280FF08C08DE89CE09F938F93BF
:1034B0000E94E8080F900F9080E00C940E1B089576
:1034C000CF93C0911603C1708091BE0280FF0CC0E3
:1034D0001F92CF9382EB9CE09F938F930E94E8080A
:1034E0000F900F900F900F90CC2319F0CF910C9468
:1034F000471ACF910C94231A90911603892F869521
:10350000869586958F5F8F719770853038F4880F18
:10351000880F880F892B8093160302C0909316039F
:1035200080911603887F91E009F490E08091160362
:1035300090FB80F9809316030E94132A8091BE02AB
:1035400080FF11C0809116038695869586951F92FF
:103550008F9389E79CE09F938F930E94E8080F90D8
:103560000F900F900F908091160386958695869503
:103570000C940E1B853008F084E090911603977030
:10358000282F220F220F220F922B90931603987F41
:1035900021E009F420E09091160320FB90F990932C
:1035A00016030C940E1B0E94BA1A809116030C94F9
:1035B000132A9C01FB018281882349F12E3BFCE503
:1035C0003F07C9F040F42C3BECE53E0769F02D3B8A
:1035D0003C4561F00895203C9CE5390791F070F07E
:1035E000213C3C4589F0089584E001C080E00E94C0
:1035F000D31A80E008950E94EC19FBCF0E94B41901
:10360000F8CF0E94601AF5CF0E947C1AF2CF81E0B9
:103610000895269A2E9808952E980895CF92DF92B5
:10362000EF92FF92CF93C82F853050F4811109C0DB
:10363000809180008F7D809380000E940C1B06C0CB
:10364000C4E0809180008062809380002C2F30E065
:10365000AFEFBFEF0E948134DC01CB0142E0B695B1
:10366000A795979587954A95D1F78C3744E19407AC
:1036700028F469E070E00E94293427C08A50974DF1
:10368000AF4FBF4F6627782F892F9A2F25EF38E24B
:1036900041E050E00E94513469017A01CA01B90148
:1036A0000E940D349B01AC01C701B6010E940D348C
:1036B000BB27A92F982F872F009721E0A207B105DC
:1036C00011F0BC0102C06FEF7FEF70938B0060932D
:1036D0008A00CF91FF90EF90DF90CF9008950895EA
:1036E0000E94091B82E28093800089E1809381001F
:1036F0008FEF9FEF90938700809386000C9493192F
:103700006A9A2EB12B7F3EB134604FB7F894FC011A
:10371000CB01880F991F680F791F6E0F7F1FE61767
:10372000F70789F0819198E03EB9000000C087FF5B
:103730002EB9880F000000C000C000C02EB900C024
:103740009A9591F7ECCF4FBF8FE594E00197F1F791
:1037500000C0000008950F931F93CF93DF93C42FF1
:10376000D22FFC0182818823C9F0409310020E946D
:10377000022C90930F0280930E0280E28C0F88300F
:1037800008F057C0C77081E001C0880FCA95EAF7FA
:10379000DF91CF911F910F910C94E3208091100243
:1037A000481330C080910E0290910F020E941A2C93
:1037B000883C910538F510E21D0FCD17B9F080E275
:1037C0008C0F883040F4C77081E001C0880FCA9523
:1037D000EAF70E94EA20183028F581E09D2F9770C3
:1037E00001C0880F9A95EAF70E94E320802F0E947B
:1037F000DA201830F0F4D77081E001C0880FDA9534
:10380000EAF70AC080E28C0F883098F4C77081E034
:1038100001C0880FCA95EAF7DF91CF911F910F91F0
:103820000C94EA20802FDF91CF911F910F910C947F
:10383000DA20DF91CF911F910F9108950F939C0192
:10384000CB01243F4CE5340731F188F4293DFCE5F8
:103850003F07D9F02A3D4CE5340779F1283D3C4536
:10386000A9F506E221EE41EE68ED7CE52BC0263F8E
:10387000FCE53F07E1F0A8F0273F3C4539F507E2BA
:1038800025EE46EE67EF7CE51DC007E225EE45EE2E
:1038900069ED7CE517C006E221EE40EE64EF7CE5C1
:1038A00011C007E225EE44EE65EF7CE50BC006E2B1
:1038B00021EE42EE66EF7CE505C008E221E045EE30
:1038C0006AED7CE50E94AB1B80E008C0FC018281B0
:1038D000882319F01092100201C081E00F91089521
:1038E000CF93DF93EC01FB018281882309F41FC190
:1038F000C230FCE5DF0708F41BC1C6319CE5D907DF
:1039000038F09E012B5F3C452930310508F010C18D
:103910000E94F12990931C0380931B03C031ECE5B6
:10392000DE0709F4C3C008F041C0C8308CE5D807F1
:1039300009F49AC0F0F4C430ECE5DE0709F487C05E
:1039400068F4C2308CE5D80709F477C0C330DC4591
:1039500009F0E3C080911B03826076C0C630ECE5BD
:10396000DE0709F46EC008F07BC080911B038860FD
:103970006BC0CC308CE5D80709F485C068F4CA3038
:10398000ECE5DE0709F474C008F079C00E946123F9
:1039900080911B03806858C0CE308CE5D80709F4AD
:1039A00076C008F07FC080911B038BC0CC3FECE554
:1039B000DE0709F44FC018F5C3318CE5D80709F4C8
:1039C0007DC078F4C131ECE5DE0709F473C0C23183
:1039D000DC4509F0A2C00E94612380911B038F7710
:1039E00033C0C5318CE5D80709F472C008F486C02D
:1039F000CB3FDC4509F091C080911C033EC0C1154E
:103A0000FDE5DF0709F45FC058F4CE3F9CE5D90718
:103A100009F444C008F43FC080911C0382602DC0AB
:103A2000C230FDE5DF0709F475C008F45DC0C3309E
:103A3000DD4509F072C080E06EC080911B0381609B
:103A400003C080911B03806180931B0366C080913B
:103A50001B0311C080911C03826080931C035DC016
:103A600080911B038062F0CF80911B038064ECCFB8
:103A700080911B0388608460E7CF8160EECF8091E6
:103A80001B038E7FE1CF80911B038D7FDDCF809163
:103A90001B03877FD9CF80911C0318C080911C0322
:103AA0008D7FDBCF80911B038F7ECECF80911B0358
:103AB0008F7DCACF80911B038F7BC6CF80911B0364
:103AC000877F8B7FC1CF80911C038D7F8E7FC5CF79
:103AD00080911B0382FB222720F991E0922790FB23
:103AE00082F990FB83F9B0CF80911C03982F9095B9
:103AF00091708E7F892B90FB81F9AFCF0E9461235B
:103B000080911B0387FB222720F991E0922790FBED
:103B100087F99ACF81E00E94902A80911B039091AF
:103B20001C030E94022A0E94612380E001C081E000
:103B3000DF91CF910895CF93DF9386319C4541F576
:103B4000EB010E942D29982F8A8120911701309135
:103B50001801882379F09A7A81E009F480E0809353
:103B60001102911102C069E201C065E3C9010E941E
:103B70004D2B0AC080911102811102C069E201C07F
:103B800065E3C9010E94582B0E947B2980E001C097
:103B900081E0DF91CF9108959093170280931602F0
:103BA0000895E0911602F0911702309721F00190EC
:103BB000F081E02D099480E00895EF92FF921F9329
:103BC000CF93DF93FC01A0911602B09117021097DA
:103BD00009F442C080912301882341F080911B03A6
:103BE00087FF04C08081818385E08083EF01129686
:103BF000ED91FC911397CE0109958091BE0282FF51
:103C00002BC080FF04C080E09EE00E944F0818E0B7
:103C10008AEFE82E8DE0F82E8091BE0280FF0BC067
:103C200088811F928F93FF92EF920E94E8080F9075
:103C30000F900F900F90115021961111EDCF8091A0
:103C4000BE0280FF09C088EF9DE0DF91CF911F91F8
:103C5000FF90EF900C944F08DF91CF911F91FF9050
:103C6000EF9008952091140230911502281739071A
:103C700071F09093150280931402E0911602F09176
:103C80001702309721F00680F781E02D09940895FE
:103C900020911202309113022817390771F0909386
:103CA000130280931202E0911602F09117023097EE
:103CB00021F00084F185E02D099408950E940E2CD6
:103CC00060932702709328028093290290932A021E
:103CD000609323027093240280932502909326021E
:103CE000089585B7806885BF85B7806885BF0895CA
:103CF00081E008950C94781E08950C947C1E0C9419
:103D00007C1E0C947F1E0C947C1E0C94831E0C94C1
:103D10007C1E0E94711E8CE49EE20E94732C0E9405
:103D2000871E0C94851E0E94F92B0E94880C0E940D
:103D3000782C0E9493190E94B5170C94811ECF9382
:103D4000C82F8091BE0282FF1EC080FF04C089E19F
:103D50009EE00E944F088091BE0280FF0CC01F921F
:103D6000CF9384E19EE09F938F930E94E8080F9089
:103D70000F900F900F908091BE0280FF04C082E1EF
:103D80009EE00E944F088C2FCF910C94FF096F92F8
:103D90007F928F929F92AF92BF92CF92DF92EF92DB
:103DA000FF920F931F93CF93DF93CDB7DEB72A9780
:103DB0000FB6F894DEBF0FBECDBF0E947D1E0E94DD
:103DC0007C1E0E94BA0C81110E945E1E39E1832E76
:103DD00032E0932E00E010E0C02E802F0E94100CE5
:103DE0005C01F401619071904F016826792661149D
:103DF0007104B1F40F5F1F4F0530110569F78FEFA4
:103E000089838A831B820E94022C8160782F9D8384
:103E10008C8349815A816B818D810E94831F3AC0B6
:103E20008091BE0281FD0E94190CD12CEE24E394F6
:103E3000F12CC3018E219F21892B29F10E947A1E2A
:103E40008823A9F0DE82CF82AE20BF2081E0AB289C
:103E500009F480E088870E94022C8160782F9A877D
:103E600089874E815F8168858A850E94831F000F44
:103E7000111FF801E75EFD4F80819181E826F92648
:103E8000F182E08207C0D394EE0CFF1CFEE0DF124B
:103E9000D0CFB0CF0E9464180E946F1B0E94D11D2A
:103EA000909118028917D1F00E94D11D80931802B9
:103EB0002A960FB6F894DEBF0FBECDBFDF91CF912B
:103EC0001F910F91FF90EF90DF90CF90BF90AF9038
:103ED0009F908F907F906F900C949F1E2A960FB6A4
:103EE000F894DEBF0FBECDBFDF91CF911F910F9130
:103EF000FF90EF90DF90CF90BF90AF909F908F900A
:103F00007F906F900895DF92EF92FF920F931F932F
:103F1000CF93DF93CDB7DEB72B970FB6F894DEBF04
:103F20000FBECDBFF42E052F162FE72ED82E611110
:103F30000E944D29FE01319686E0DF011D928A958F
:103F4000E9F77E2D4F2D502F612F8D2D9E810E94E0
:103F50001A262B960FB6F894DEBF0FBECDBFDF91A9
:103F6000CF911F910F91FF90EF90DF900895FC018A
:103F7000808191810E94EE280895CF93882309F4CF
:103F8000A1C0C82F8238C1F40E94D11D81FD9AC002
:103F900069E380911701909118010E944D2B0E94B6
:103FA0007B292FEF81EE94E0215080409040E1F793
:103FB00000C0000069E319C0833801F50E94D11DDB
:103FC00080FD80C063E580911701909118010E94E7
:103FD0004D2B0E947B292FEF81EE94E021508040F1
:103FE0009040E1F700C0000063E5809117019091D7
:103FF00018010E94582BCF910C947B298438C1F46E
:104000000E94D11D82FD5EC067E4809117019091EE
:1040100018010E944D2B0E947B292FEF81EE94E026
:10402000215080409040E1F700C0000067E4DDCF00
:104030008CEF8C0F813AF8F48C2F0E944F10811175
:1040400041C06C2F80911701909118010E94AB2AFA
:10405000882349F06C2F80911701909118010E94DC
:10406000582B0E947B296C2F809117019091180189
:104070000E944D2BC0CF80E28C0F883048F4C7706F
:1040800081E001C0880FCA95EAF70E943029B3CFBA
:10409000EBE5EC0FE33040F4F0E0EF53FE4F8081AE
:1040A00090E0CF910C94321EC85AC73158F4EC2FCF
:1040B000F0E0EE0FFF1FED56FE4F80819181CF9112
:1040C0000C94481ECF910895882309F45BC0682F93
:1040D000823879F40E94D11D81FF54C069E3809138
:1040E0001701909118010E944D2B0E947B2969E3D2
:1040F00010C08338B1F40E94D11D80FF43C063E536
:1041000080911701909118010E944D2B0E947B29EC
:1041100063E580911701909118010E94582B0C942F
:104120007B29843879F40E94D11D82FF2BC067E47B
:1041300080911701909118010E944D2B0E947B29BC
:1041400067E4E7CF8CEF860F813A18F380E2860FA1
:10415000883048F4677081E001C0880F6A95EAF7FB
:104160000E943629DCCF8BE5860F833020F480E077
:1041700090E00C94321E685A673120F480E090E0A1
:104180000C94481E08951F93CF93DF93182FEB01D3
:104190000E94BD1F209741F08FE99FE00197F1F742
:1041A00000C000002197F6CF812FDF91CF911F91A2
:1041B0000C946420893319F060E070E002C060E57F
:1041C00070E00C94C320882321F00E9430290C94C5
:1041D0007B290895882321F00E9436290C947B299D
:1041E0000895CF92DF92EF92FF920F931F93CF9398
:1041F000DF937C01062FC72FFC01D2811581129518
:104200001F700E942629882399F0DD2389F08C2FC6
:10421000807F803421F080E2800F883048F082E097
:104220000E94C5290E94262991E0D82ED92601C0D6
:10423000D12CCC2EC2948FE0C8228C2D90E0FC01B2
:10424000E755FF4F0C9473348C2F807FCF708823F9
:1042500011F0C295C07FDD2399F0CC2309F482C10F
:1042600080E2800F883010F0011104C08C2F0E9472
:10427000302903C08C2F0E9440290E947B2972C1E3
:10428000802F0E946420CC2309F491C180E2800F2A
:10429000883010F0011104C08C2F0E94362903C011
:1042A0008C2F0E9446290E947B2981C18C2F807F00
:1042B000CF70803211F0C295C07F002319F0013019
:1042C000C9F022C0DD2371F0112341F0113031F427
:1042D0000E9460298C2B0E94682969C10E94602974
:1042E0008C2B1DC0112319F0113009F460C10E94FC
:1042F000712925C0DD2321F0163008F058C10EC009
:10430000153008F054C11BC0DD2361F0112331F0DA
:10431000F701858180FF26C18F7085838C2F0E94D5
:10432000E32045C1112359F0093309F02CC1FFEFF7
:1043300027EE83E0F15020408040E1F722C18C2F2E
:104340000E94EA2034C18C2F86958695837019F0DF
:10435000813061F02CC1DD2321F0802F9C2F9370E0
:1043600002C080E090E00E94321E29C1DD2321F0CE
:10437000802F9C2F937002C080E090E00E94481E26
:104380001EC18C2F837009F045C0D11114C1402F7C
:10439000429546954770440F440F602F6F70862FEB
:1043A00090E0A0E0B0E0042E04C0880F991FAA1F7F
:1043B000BB1F0A94D2F704FF10C00FE010E020E00A
:1043C00030E004C0000F111F221F331F4A95D2F79F
:1043D000009510952095309503C000E010E09801FD
:1043E000C695C695C370BC01CD01602B712B822B85
:1043F000932BC23049F058F4C13019F00E946B275A
:10440000DAC00E945927D7C00E947D27D4C00E94DD
:104410005727D1C0DD2319F08C2F817001C08695FC
:10442000882309F4C8C0402F429546954770440F31
:10443000440F602F6F70862F90E0A0E0B0E0042E54
:1044400004C0880F991FAA1FBB1F0A94D2F704FF4C
:1044500010C00FE010E020E030E004C0000F111F9A
:10446000221F331F4A95D2F700951095209530955D
:1044700003C000E010E09801C695C695C370BC016A
:10448000CD01602B712B822B932BC23049F058F455
:10449000C13019F00E9430288EC00E941E288BC0A7
:1044A0000E94422888C00E94912785C0CF70DD23DA
:1044B00039F08C2F0E94B727802F0E94E3207BC009
:1044C000802F0E94EA208C2F0E94D82774C0023FC0
:1044D00001F128F4003F41F0013FA1F03FC0033F4C
:1044E000F9F0043F39F13AC0DD2341F0153008F00E
:1044F0005EC08C2F8F710E94FD2759C0163008F0C6
:1045000056C0F7CFDD2339F08C2F8F710E94B7276B
:104510004EC0DD23C9F38C2F8F710E94D82747C06E
:10452000DD2329F08C2F8F710E94A22740C00E94AA
:104530009D273DC0DD2349F0CF718C2F0E94B72706
:1045400063E08C2F0E94B02932C081E00E94C5290F
:10455000123068F182E00E94C52929C0DD2331F0C4
:10456000112391F2802F0E94BD1F21C0112399F2C7
:10457000093349F49FEFE7EEF3E09150E040F0405B
:10458000E1F700C00000802F0E94642010C04C2F73
:104590004F70602FC7010E94080A0E94C8260FC0F2
:1045A0004C2F4F70602FC7010E940B0A08C088EF84
:1045B0008C0D843020F40E94D11D0E94FF09DD2063
:1045C000C9F00E94222980FD15C0F70112820E94C5
:1045D0001C290E94B727C7010E941B230E941C2987
:1045E000DF91CF911F910F91FF90EF90DF90CF90CF
:1045F0000C94D827DF91CF911F910F91FF90EF90EE
:10460000DF90CF9008950F931F93CF93DF93EC012A
:10461000688179818A810E94F9288C010E9454283E
:104620000E944527B801CE010E94F120DF91CF9171
:104630001F910F910895CF93DF93EC0198818981A9
:104640002B813C81232B31F08F3F31F481E09F3F60
:1046500019F403C081E001C080E080FD19C0CE01E3
:104660000E945F0981110CC00E942629882381F0D5
:104670008A81882369F082E0DF91CF910C94C5296B
:10468000CE010E940323CE01DF91CF910C94360915
:10469000DF91CF91089580E090E00E94321E80E08B
:1046A00090E00E94481E0E944D290E945D290C94B2
:1046B0007B2980911701909118010E94632B0C9423
:1046C0004B230E943D290C945923E92FE295EF706A
:1046D0004E2F50E0FA013297EE30F105B0F4E75476
:1046E000FF4F0C947334803F91F018F4883E68F4C7
:1046F0000EC0843F51F40BC0883E48F0813F29F43E
:1047000006C093FB882780F9089580E0089581E032
:1047100008950E94EE280E9465230895CF93DF93A9
:1047200000D000D01F92CDB7DEB70F900F900F9042
:104730000F900F90DF91CF910895CF93DF9300D02A
:1047400000D000D0CDB7DEB726960FB6F894DEBF06
:104750000FBECDBFDF91CF9108951F93CF93DF930D
:10476000C0912C0216E080912D02C81799F0D0E07C
:104770001C9FF0011D9FF00D1124E25DFD4F408153
:10478000518162817381848195810E949D2321964C
:10479000C770E9CFDF91CF911F91089540915E02DC
:1047A00050915F026091600270916102809162029B
:1047B000909163020C949D230F931F93CF93DF93EB
:1047C0008091630282958F7009F05DC080916002D4
:1047D000882309F458C080912C0210912D02609119
:1047E0005E0270915F02C0916102D091620291E01D
:1047F0006F3F09F090E0292F06E0811709F443C0CC
:10480000209721F07F3F21F030E003C031E001C06C
:10481000322F90E030FD34C0089FF001099FF00D69
:104820001124DF01A25DBD4F11963C911197371302
:1048300027C03C91361324C012963C911297311137
:104840001FC013964D915C9114974C1B5D0B483C17
:104850005105B0F4809163028F7080618093630290
:10486000ED5CFD4F80818F70806180838EE592E0EA
:104870000E941B23DF91CF911F910F910C94AD23C8
:1048800001968770BACFDF91CF911F910F91089554
:104890009F92AF92BF92CF92DF92EF92FF920F93CF
:1048A0001F93CF93DF93CDB7DEB761970FB6F89420
:1048B000DEBF0FBECDBF8C0185E0F801DE011D9685
:1048C00001900D928A95E1F7F80140815181E280D3
:1048D00090915E0260915F022091610230916202CC
:1048E0002115310531F06F3F31F481E09F3F19F41C
:1048F00003C081E001C080E0F82FF1709F2E80FDA1
:1049000046C1F801A380B4808EE5C82E82E0D82E7F
:10491000F0906002F501E21BF30BFF2009F4DFC009
:1049200080916302E83CF10508F09BC0282F207FAE
:1049300009F052C0561313C0491311C0FE2CE110E8
:104940000EC08F708061809363020E94CE23C601E7
:104950000E941B2380916302F801858358C1AB2814
:1049600031F05F3F31F481E04F3F19F403C081E043
:1049700001C080E080FD03C081E08E2502C080E0A0
:1049800090E0F82FF170FF2E80FF1CC080912C0268
:1049900020912D0236E0821709F417C190E0389F6C
:1049A000F001399FF00D1124E25DFD4F6181561336
:1049B00006C06081461303C06281E61203C00196FF
:1049C0008770E9CFFE2CEE2009F421C180916302AB
:1049D0008160809363025AC0561306C0491304C015
:1049E000E11002C0F8019FC04D875E878D859E85CE
:1049F0000E948923882379F1EE2069F120916302D6
:104A0000822F82958F7090E0029774F080915E0201
:104A100090915F0298878F831986BB86AA862C8720
:104A2000CE0107960E941B2386E0F801AEE5B2E0B6
:104A300001900D928A95E1F70E94DC230E94CE231B
:104A40000DC0561729F14D875E878D859E850E9482
:104A5000892381112CC0C8010E941B23FF24F394D9
:104A6000D6C0282F207F69F77A2DB98AA88A6E2DA3
:104A700089890E948E238EE592E00E941B2386E0A6
:104A8000F60111928A95E9F70E94CE23F12CBFC05E
:104A90004913D9CFE110D7CFF8018583C8010E940F
:104AA0001B2386E0F60111928A95E9F7B0C0EE204B
:104AB00091F220916302822F82958F7090E002978D
:104AC0000CF4B2CF80915E0290915F029A83898349
:104AD0001B82BD82AC822E83CE010196A3CFE83C1F
:104AE000F10508F047C0FE2CEE2009F4B4CF5613B0
:104AF00030C049132EC02091630220FD21C0822FB7
:104B000082958F70482F50E041155105C9F0F8018A
:104B100025834F30510541F08F5F982F9295907FFC
:104B2000822F8F70892B8583C8010E941B2386E00A
:104B3000F801AEE5B2E001900D928A95E1F742C02E
:104B400086E0F801AEE5B2E001900D928A95E1F7BA
:104B50005EC04D875E878D859E850E948923811169
:104B600063CF80916302816080936302C8010E94D9
:104B70001B234DC07A2DB98AA88A6E2D89890E947F
:104B80008E2386E0F60111928A95E9F71BC0EE208C
:104B900009F461CF4D875E878D859E850E948923AC
:104BA000F82E882309F457CF86E0F801AEE5B2E08D
:104BB00001900D928A95E1F78EE592E00E94B71F71
:104BC0000E94DC230E94CE2322C04D875E878D8504
:104BD0009E850E94EE28292F22952F70223028F4DE
:104BE0009F7039F0811105C00BC0243028F49F70EC
:104BF00049F4805E883020F0C8010E941B239F2C5E
:104C0000F92C05C0F8019581907F99F7F9CF8F2D88
:104C100061960FB6F894DEBF0FBECDBFDF91CF9186
:104C20001F910F91FF90EF90DF90CF90BF90AF90CA
:104C30009F9008951F93CF93DF93CDB7DEB72C9746
:104C40000FB6F894DEBF0FBECDBF4F83588769877C
:104C50007A878B879C87CE0107960E9448248823F9
:104C6000D1F09F8188852A853B85232B31F08F3FAA
:104C700031F481E09F3F19F403C081E001C080E07E
:104C800080FD47C04F81588569857A858B859C85D5
:104C90000E949D233EC086E0FE013796DE011196FC
:104CA00001900D928A95E1F7FF81E8856A857B8501
:104CB0006115710531F0EF3F31F481E0FF3F19F4E8
:104CC00003C081E001C080E080FD23C020912D025F
:104CD00030E0C90101968770992740912C0250E07D
:104CE00084179507F1F1F983EA837D836C8396E05D
:104CF000929FD001939FB00D1124A25DBD4FFE0184
:104D0000319601900D929A95E1F780932D020E94C1
:104D1000AD2316E080912C0290912D02891771F13C
:104D2000189FC0011124825D9D4F0E944824882352
:104D300029F1E0912C021E9FF0011124E25DFD4F4C
:104D40004081518162817381848195810E949D237C
:104D500080912C0290E001968770992780932C0215
:104D6000D9CF0E94612310922D0210922C02EEE501
:104D7000F2E086E0DF011D928A95E9F72C960FB6E6
:104D8000F894DEBF0FBECDBFDF91CF911F91089584
:104D9000EF92FF920F931F93CF93DF938C01892B98
:104DA00009F46CC0F12CEE24E394E8012196F8019B
:104DB0008491843740F4843008F051C0813081F010
:104DC000823019F15BC0853709F444C0A8F19CE733
:104DD000980F903708F052C08F770E94642041C02E
:104DE0000E5F1F4FFE01849190E2980F983050F4AF
:104DF0008770FE2D01C0FF0F8A95EAF78F2F0E9462
:104E0000502914C00E94BD1F2DC00E5F1F4FFE0110
:104E1000849190E2980F983060F48770FE2D01C065
:104E2000FF0F8A95EAF78F2F0E9456290E947B294F
:104E300019C00E94642016C00E5F1F4FFE01C4916E
:104E4000CC2381F08FE99FE00197F1F700C00000CB
:104E5000C150F6CF0E5F1F4FFE01F49003C00E94B9
:104E6000BD1F8E018F2D882309F49FCFEFE9FFE04E
:104E70003197F1F700C000008150F5CFDF91CF915D
:104E80001F910F91FF90EF900895089508950C944D
:104E900046270C9447270E944927609395027093F8
:104EA000960280939702909398020C944B230C9453
:104EB0004B270F931F93009195021091960220911A
:104EC000970230919802602B712B822B932B1F91AC
:104ED0000F910C944B270F931F9300919502109103
:104EE00096022091970230919802602371238223C9
:104EF00093231F910F910C944B270F931F930091B5
:104F000095021091960220919702309198026027A5
:104F10007127822793271F910F910C944B270C9494
:104F200046270E948F27609391027093920280938C
:104F30009302909394020C944B2360E070E0CB01B9
:104F40000C9491270F931F9341E050E060E070E0D4
:104F50008A019B0104C0000F111F221F331F8A9575
:104F6000D2F7C901B8011F910F910C9491270F93AB
:104F70001F9341E050E060E070E004C0440F551F13
:104F8000661F771F8A95D2F78091910290919202C5
:104F9000A0919302B09194028A019B01082B192BD6
:104FA0002A2B3B2BC901B8011F910F910C9491271B
:104FB0000F931F9341E050E060E070E004C0440FA5
:104FC000551F661F771F8A95D2F7409550956095BB
:104FD00070958091910290919202A0919302B0916C
:104FE00094028A019B01082319232A233B23C90128
:104FF000B8011F910F910C9491270F931F9341E0DB
:1050000050E060E070E004C0440F551F661F771F3A
:105010008A95D2F78091910290919202A091930289
:10502000B09194028A019B01082719272A273B2760
:10503000C901B8011F910F910C9491270F931F93F1
:10504000009191021091920220919302309194026A
:10505000602B712B822B932B1F910F910C94912716
:105060000F931F930091910210919202209193024D
:105070003091940260237123822393231F910F9117
:105080000C9491270F931F9300919102109192021B
:1050900020919302309194026027712782279327F1
:1050A0001F910F910C94912708952EE0929F800DEF
:1050B0001124E82FE695E695E695877051E001C04A
:1050C000550F8A95EAF785E0E89FF0011124EC5925
:1050D000FD4F20E030E070E04081CB01022E02C0A5
:1050E000969587950A94E2F78170819584278523A8
:1050F000842781932F5F3F4F2530310569F708954D
:105100002EE0929F800D1124682F66956695669516
:10511000982F977085E0689FB001112440E050E01F
:1051200080E0FB01E40FF51FEC59FD4F208130E0DA
:10513000092E02C0369527950A94E2F7217033278D
:10514000042E01C0220F0A94EAF7822B4F5F5F4FB3
:105150004530510531F70895BF92CF92DF92EF921B
:10516000FF920F931F93CF93DF938C01C090910216
:10517000D0909202E0909302F09094028091950278
:1051800090919602A0919702B0919802C82AD92ACC
:10519000EA2AFB2ACFE1D0E0D701C6010C2E04C0D9
:1051A000B695A795979587950A94D2F780FD04C088
:1051B000219790F7B12C07C0BC2EB8018C2F0E940C
:1051C000270A0197A9F38B2DDF91CF911F910F91A2
:1051D000FF90EF90DF90CF90BF900895CF93DF9333
:1051E000EC010E94AC28BE010E94270ADF91CF91FA
:1051F00008951F93CF93DF93EB0190912B02992396
:1052000021F0CB010E94EE2813C0882349F0CB0186
:105210000E94AC28182F682FCE010E94552804C088
:10522000CB010E948028182FBE01812F0E94270ADF
:10523000DF91CF911F910895809199028595859571
:1052400085950895809199028770089590919902AB
:10525000977081E009F480E008958091BD0208957F
:105260009091BD02892B8093BD0208958095909105
:10527000BD0289238093BD0208951092BD02089556
:105280009091BC02892B8093BC02089580959091E7
:10529000BC0289238093BC0208951092BC02089539
:1052A0009091BB02892B8093BB02089580959091C9
:1052B000BB0289238093BB0208951092BB0208951C
:1052C00080919A02089508950C9463290C9464299E
:1052D00090919A02981721F080939A020C94662973
:1052E000089580919A02882329F010929A0280E012
:1052F0000C9466290895E0911701F09118018091AE
:10530000BD028083E0911701F09118019081809196
:10531000BC02892B8083E0911701F09118019081E4
:105320008091BB02892B808380919A02882381F02F
:10533000E0911701F09118019081892B8083809171
:105340001701909118010E94952A81110E947129DC
:1053500080911701909118010C94DD1D0C94632924
:1053600098E0899F90011124262B209399020E9496
:10537000B727809199028595859585950C94AE29DE
:105380001092990280E00C94AE29209199028095A8
:10539000822380939902982F977079F430E0482FF8
:1053A000082E000C550B2417350739F08595859587
:1053B00085950E94D8270C94C029089580E090E03C
:1053C0000E94213521E08B3E9E4F09F020E0822F84
:1053D000089582E090E00C94133583E090E00C9403
:1053E0001335CF9384E090E00E941335C82F81E2FB
:1053F00090E00E9413352C2F30E0A901582BCA01F0
:10540000CF910895CF93C92F682F84E090E00E9438
:1054100027356C2F81E290E0CF910C94273586E000
:1054200090E00C941335682F86E090E00C942735BB
:10543000AB01BC018FE090E00C943935AB01BC01AD
:1054400083E190E00C94393560E070E0CB010C947E
:105450001E2A60E070E0CB010E94182A0C94242AD6
:105460006BEE7EEF80E090E00E94453560E082E0E8
:1054700090E00E94273560E083E090E00E942735AD
:105480001092950210929602109297021092980232
:1054900060E084E090E00E94273560E081E290E0E7
:1054A0000E94273560E085E090E00E94273560E0AB
:1054B00086E090E00E9427356FEF87E090E00E9441
:1054C000273540E050E0BA0188E090E00E9439358D
:1054D00060E08DE090E00E94273540E050E0BA01A6
:1054E00088E190E00E94393560E087E190E00E9419
:1054F000273540E050E0BA018CE190E00E94393558
:1055000060E080E290E00E94273540E050E0BA0180
:1055100088E190E00E9439350C94292A0C94302AB5
:10552000682F8EE090E00C942735FC013296809134
:105530002301882331F080911B0387FF02C09EE185
:1055400001C096E080E0915028F021912223D9F308
:105550008F5FF9CF0895662351F120912301222313
:10556000E9F020911B0327FF19C0462F4695469569
:1055700046954E31E0F4677021E030E002C0220F22
:10558000331F6A95E2F7FC01E40FF11D828190E080
:105590002823392381E0232B69F409C0FC013296CA
:1055A00008962191621729F0E817F907D1F780E0F2
:1055B000089581E008959C01FC0132969FEF80E000
:1055C0004191461789F09F3F19F4411101C0982F6E
:1055D0008F5F8630A9F79F3F39F0F901E90FF11D80
:1055E00097FDFA956283089508959C012A5F3F4FC5
:1055F000FC014281461301C0128201968217930773
:10560000B9F70895262F2695269526952E3170F404
:10561000FC01E20FF11D677021E030E001C0220FB4
:105620006A95EAF78281282B228308958091BE0231
:1056300080FF0CC01F926F938AE49EE09F938F932C
:105640000E94E8080F900F900F900F900895262F5A
:105650002695269526952E3178F4FC01E20FF11D52
:10566000677021E030E001C0220F6A95EAF72095CB
:1056700082812823228308958091BE0280FF0CC07E
:105680001F926F938CE29EE09F938F930E94E80895
:105690000F900F900F900F900895209123012223D7
:1056A00029F020911B0327FD0C94022B0C94DB2A7C
:1056B00020912301222329F020911B0327FD0C9424
:1056C000272B0C94F52A20912301FC0132962223EA
:1056D00031F080911B0387FF02C08EE101C086E09C
:1056E000DF011D928A95E9F7089508950C94752BB2
:1056F0000C94752BCF930E94782B0E94BA0C0E94B9
:10570000762BC0E08C2F0E94100C892B29F4CF5FE0
:10571000C530C1F780E001C081E0CF9108950C94BD
:10572000752B0C948F2B80912103843061F10E94A2
:10573000912B80E00E940E1B80E00E94FF091092D6
:10574000BF0220E488E190E00FB6F894A89580931A
:1057500060000FBE2093600083B7817F846083BFA9
:1057600083B7816083BF7894889583B78E7F83BF2A
:105770000FB6F894A89580916000886180936000CE
:10578000109260000FBE08950C94752B0E94612347
:105790000E9493190E94D11D0E94FF090C94C42BF2
:1057A0001F920F920FB60F9211248F939F93AF9376
:1057B000BF938091BF02811113C080911703909114
:1057C0001803A0911903B0911A034196A11DB11DB0
:1057D0008093170390931803A0931903B0931A03AF
:1057E000BF91AF919F918F910F900FBE0F901F901F
:1057F000189582E084BD93E095BD9AEF97BD8093A4
:105800006E0008952FB7F8948091170390911803B4
:10581000A0911903B0911A032FBF08952FB7F894E0
:1058200060911703709118038091190390911A03E6
:105830002FBF08959C014FB7F89480911703909162
:105840001803A0911903B0911A034FBF821B930B49
:10585000089578941F920F920FB60F9211248F9390
:105860009F93AF93BF938091170390911803A091DA
:105870001903B0911A030196A11DB11D809317035E
:1058800090931803A0931903B0931A03BF91AF919B
:105890009F918F910F900FBE0F901F90189581E0F0
:1058A0008093E00080E28093D8001092C9008FE1DD
:1058B0009EE40197F1F700C0000087E090EBDC0167
:1058C00080932A0390932B03A0932C03B0932D0372
:1058D0009CE088E10FB6F894A895809360000FBE15
:1058E00090936000FFCF9093D5018093D4010895E9
:1058F0000E94DE29811102C00E948E2A0E94E9299D
:105900008093BE020E94F12990931C0380931B0395
:105910000E94ED29682F70E080E090E00E945727F8
:105920006091910270919202809193029091940201
:105930000C948F278091E30208950895CF93DF930D
:1059400000D01F92CDB7DEB790912103943019F5A6
:1059500089837B836A8382E08093E9008FEF909153
:10596000E800815095FD06C095ED9A95F1F700008D
:105970008111F5CF8091E80085FF0DC040E050E037
:1059800063E070E0CE0101960E94702F8091E800E4
:105990008E778093E8000F900F900F90DF91CF915A
:1059A0000895BC0184E00C949E2CBC0183E00C940F
:1059B0009E2CCF93DF9320912301222339F0209155
:1059C0001B0327FF03C060E222E002C068E021E081
:1059D0002093E9002FEF3091E800215035FD06C0FB
:1059E00035ED3A95F1F700002111F5CF2091E8004F
:1059F00025FF1DC0EC0180912301811105C040E00D
:105A000050E068E070E003C070E040E050E0CE019C
:105A10000E94702F8091E8008E778093E80080E2EA
:105A2000FE01A3ECB2E001900D928A95E1F7DF91BF
:105A3000CF9108958DE89EE00E944F088091200349
:105A4000811109C00E9401310E945E318091E20003
:105A500084608093E200089589E89EE00E944F08E8
:105A600010922003089585E89EE00C944F0881E889
:105A70009EE00C944F088DE79EE00C944F08209117
:105A8000C1022F5F822F62E30E941D34992319F017
:105A90002093C10208951092C1028091C20288230E
:105AA00071F180912103843041F58091E9008F707C
:105AB0002091EC00922F917020FD90E8892B93E0CB
:105AC0009093E9009091EB0090FF14C09091EE004C
:105AD00097FF10C09091E80095FF03C01092F1006D
