:100000000C9416030C945D030C945D030C945D0337
:100010000C945D030C945D030C945D030C945D03E0
:100020000C945D030C945D030C94BF290C94912AED
:100030000C9446230C945D030C945D030C945D03B7
:100040000C945D030C945D030C945D030C945D03B0
:100050000C945D030C949F230C945D030C945D033E
:100060000C945D030C945D030C945D030C945D0390
:100070000C945D030C945D030C945D030C945D0380
:100080000C945D030C945D030C945D030C945D0370
:100090000C945D030C945D030C945D030C945D0360
:1000A0000C945D030C945D030C945D035C115F1173
:1000B00067116C11711176117B11801185118A11F4
:1000C0008F119411961199119C119F11A211A511D4
:1000D000A711AC119C189C18CE18CE181B193919F1
:1000E0005A1A5A1A4419D919EA19EA194A1A5A1AFB
:1000F0005A1A531AFA1AFA1A0C1B0C1B031B0C1B64
:100100000C1B0C1BFA1AFA1A081B0C1B0C1B081BE5
:10011000FE2A252B1D2C252B1D2C712B942B1D2CE1
:10012000EB2BFA2B29003A003B003C003D003E003F
:100130003F00400041004200430044004500AA0047
:10014000A900A80035001E001F0020002100220089
:10015000230024002500260027002D002E004C003F
:100160002A004A002B00000014001A0008001500A5
:1001700017001C0018000C00120013002F003000A4
:1001800031004B00E00000000400160007000900E9
:100190000A000B000D000E000F0033003400280091
:1001A00000004E00E10001511D001B000600190077
:1001B0000500110010003600370038000000E5008F
:1001C00052004D00E300E2000000E3002C000000BC
:1001D0002C0000002C000000E700E6000151500058
:1001E00051004F00B300BE00BD000100010001003E
:1001F00001000100010001000100AA00A900C05C8B
:10020000BF5CBE5C010001000100010001000100B3
:1002100001000100010001000100010001000100D6
:10022000005C010001000000C35CC45CC55CCA5CEA
:10023000CB5CC85CC95CC65CC75C01000100010006
:100240000100F90001000000CE5CCF5CD05CD15C05
:10025000D25CD35CD45CD55CD65C01000100F100BB
:100260000000FA000100C15CC15CC25CBC5CBD5C0A
:10027000C05C01000100010001000100000001005C
:10028000ED00F2000100010000000100010000008B
:100290000100000001000000010001000100EF006A
:1002A000EE00F0001E0F0500047F3F1F643214644F
:1002B0003214783C1E1E140A052223252628292ADA
:1002C0002C2D2F3032333536383A3B3D3E404243B9
:1002D0004547494A4C4E5051535557595A5C5E60F8
:1002E00062646668696B6D6F71737577797B7D7F0A
:1002F00081838587898A8C8E90929496989A9C9E09
:100300009FA1A3A5A7A8AAACAEAFB1B3B4B6B8B924
:10031000BBBCBEBFC1C2C3C5C6C7C9CACBCCCDCE8C
:10032000D0D1D2D2D3D4D5D6D7D7D8D9D9DADADB6F
:10033000DBDBDCDCDCDCDCDDDDDDDDDCDCDCDCDCFB
:10034000DBDBDBDADAD9D9D8D7D7D6D5D4D3D2D23A
:10035000D1D0CECDCCCBCAC9C7C6C5C3C2C1BFBE22
:10036000BCBBB9B8B6B4B3B1AFAEACAAA8A7A5A38D
:10037000A19F9E9C9A98969492908E8C8A8987854C
:1003800083817F7D7B79777573716F6D6B6968662B
:100390006462605E5C5A5957555351504E4C4A49FD
:1003A00047454342403E3D3B3A3836353332302FA5
:1003B0002D2C2A292826252322FFAA7F554000011B
:1003C0000101010101010101020202020202020215
:1003D00002030303030303030304040404040404E7
:1003E00005050505050606060606070707070708AB
:1003F000080808090909090A0A0A0B0B0B0C0C0C5E
:100400000D0D0D0E0E0E0F0F0F10101111111212F7
:1004100013131414151516161717181819191A1A74
:100420001B1B1C1D1D1E1E1F2020212222232424D5
:10043000252626272829292A2B2C2D2D2E2F303111
:100440003232333435363738393A3B3C3D3E3F4023
:100450004142434445464748494A4C4D4E4F50510E
:100460005354555658595A5B5D5E5F6162646566C8
:1004700068696B6C6D6F7072737577787A7B7D7E4F
:100480008082838587888A8C8E8F91939596989A9F
:100490009C9EA0A2A3A5A7A9ABADAFB1B3B5B7BAB7
:1004A000BCBEC0C2C4C6C9CBCDCFD1D4D6D8DBDD8B
:1004B000DFE2E4E7E9EBEEF0F3F5F8FAFDFF0C0319
:1004C0004B00420044003700350000001603710065
:1004D0006D006B006200750069006C0064006500CF
:1004E000720000000403090409023B00020100A09D
:1004F000FA090400000103010100092111010001B2
:100500002240000705810308000A090401000103D5
:1005100000000009211101000122B6000705820335
:1005200020000A1201100100000008424B60600127
:10053000000102000105010902A10185020901A1D2
:100540000005091901290815002501950875018183
:10055000020501093009311581257F950275088151
:100560000609381581257F950175088106050C0A55
:1005700038021581257F950175088106C0C00501E7
:100580000980A101850319012AB700150126B700CA
:10059000950175108100C0050C0901A101850419A0
:1005A000012AA002150126A002950175108100C044
:1005B00005010906A1018505050719E029E71500D0
:1005C00025019508750181020507190029EF15001D
:1005D000250195F075018102050819012905950588
:1005E00075019102950175039101C005010906A1EC
:1005F00001050719E029E715002501950875018116
:10060000029501750881010507190029FF150026CB
:10061000FF00950675088100050819012905950553
:1006200075019102950175039101C00011241FBE4F
:10063000CFEFDAE0DEBFCDBF04B603FE27C0809166
:10064000860390918703A0918803B0918903873036
:10065000904BA740B04BD1F41092860310928703C1
:10066000109288031092890314BE84B7877F84BFD9
:100670000FB6F894A895809160008861809360001F
:10068000109260000FBEE0E0F8E3099511E0A0E0F1
:10069000B1E0E0E8FBE502C005900D92A03DB10796
:1006A000D9F723E0A0EDB1E001C01D92A638B20752
:1006B000E1F70E94F7260C94BE2D0C94000081E017
:1006C000089581E008950C94610308950C946503E6
:1006D0001F93CF93DF9300D000D01F92CDB7DEB72A
:1006E00049835A836B8330915F0289819A813111EA
:1006F00014C0662359F0222349F00E943320182F9A
:10070000682F89819A810E94DC1F03C00E94072004
:10071000182F69817A81812F04C00E94332069815A
:100720007A810F900F900F900F900F90DF91CF91E3
:100730001F910C943804FC01262F40815181628165
:10074000738184810C946803CF93DF93EC0160E0A4
:100750000E949B03BE01DF91CF910C9466030E941F
:100760006721811102C00E9421220E9428040E9458
:100770002F130C945D060C94590608950E94E81AF4
:100780000E94BD032FEF84E39CE021508040904005
:10079000E1F700C000000C94C5230F931F93CF9383
:1007A000DF93EC0161E00E949B038C01BE010E947B
:1007B00063038823A9F1BE01C8010E949012882317
:1007C00079F1BE01C8010E94DD13882349F1BE0101
:1007D000C8010E942F14882319F1BE01C8010E948C
:1007E0005A158823E9F0BE01C8010E9445118823EB
:1007F000B9F08A81882369F001158CE5180731F07A
:100800000F3D1C4531F40E9421220AC00E94BE0304
:1008100007C0CE01DF91CF911F910F910C945F0320
:1008200080E0DF91CF911F910F91089508950C946E
:10083000160481E00895CF93C82F0E9419048823DD
:1008400029F0C1FD02C02A9A01C02A98CF910895CB
:10085000229A2A9A0895CF93C82F0E9417048C2FAA
:100860000E941B04CF91089580E090E008950895C0
:10087000E72FF0E096E0899FE00DF11D112484E060
:10088000EE0FFF1F8A95E1F7E60FF11DEE0FFF1F38
:10089000EC5DFE4F859194910895880F991FFC019E
:1008A000EC55FD4F859194910895CF93DF930E946D
:1008B00038040E946D05EC018115904508F041C097
:1008C000C11580E4D80708F0D1C0C83ED10510F5A5
:1008D000C03ED10508F0FDC0C83AD10578F4C53A4C
:1008E000D10508F0A2C0C130D10509F4F2C008F466
:1008F000EEC0C430D10508F0ECC0E9C0CF3BD10553
:1009000008F49BC0C03CD10508F4E1C0CE01805C76
:1009100091099EC0C11590E2D90758F4C11521E094
:10092000D20708F0D6C0CD3ED10508F4D0C0D065BE
:10093000D0C0C11580E3D80708F08EC0CE019F70EB
:1009400087C0C11595E5D90708F043C0C11524E556
:10095000D20708F0A2C0C11582E5D80708F5C11575
:1009600091E5D90708F085C0CE0174E0969587958A
:100970007A95E1F783709C2F937021E030E002C0FC
:10098000220F331F9A95E2F73C68382BCF70C6953B
:10099000C69580E2C89FE0011124C22BD32B99C0D9
:1009A0009E01237033278C2F86958695C115D345DC
:1009B00008F064C0C1E0D0E002C0CC0FDD1F2A9572
:1009C000E2F720E2829FC0011124C82BD92BDC68FA
:1009D00080C0C11529E5D207A0F4C11588E5D80764
:1009E00008F060C0C11596E5D90708F070C08C2FDB
:1009F0000E9401068F71C82FD0E0DC2FCC27D06277
:100A000068C0C1152AE5D20708F451C0CE0190563E
:100A10008115904208F05BC08D2F8F710E940106F6
:100A2000DD27D0628F71D82B54C0C55AD0E0C65A8A
:100A3000DE4FC881D0E0D0644CC0C85AD0E0CC0FA3
:100A4000DD1FC45DDE4F0990D881C02DD46441C044
:100A50000E944D04EC013DC0CE019927D3FF03C095
:100A6000EC01D86C36C0EC01D06C33C0DF70D06ABA
:100A700030C0DC2FCC27C16FD06A2BC0C1E0D0E0E2
:100A800002C0CC0FDD1F2A95E2F720E2829FC00151
:100A90001124C82BD92BDA681CC0DC2FCC27C46FDB
:100AA000D06A17C0DC2FCC27C06FD06A12C08C2F41
:100AB0008F700E94010694E0D695C7959A95E1F74C
:100AC000CF70D0E0DC2FCC27D069C82B02C0C0E0AB
:100AD000D0E0CE01DF91CF9108958238910569F180
:100AE000B0F48133910509F46DC048F48932910561
:100AF00009F463C08A32910509F469C00895853309
:100B0000910509F455C089339105B9F00895833EE4
:100B1000910569F138F4803E9105B1F0823E91056E
:100B200009F10895863E9105A9F1873E9105B9F135
:100B3000843E910509F064C023C02091770320FD15
:100B40004FC021FD4DC008958091770380FD44C0C2
:100B50008091780380FF44C08091770384FD42C078
:100B600083EE4DC08091770382FF38C0F5CF80912E
:100B7000770382FD33C08091780380FD31C0ECCFD4
:100B80008091780381FF32C08091770384FD2AC071
:100B900087EE35C08091770383FF26C0F5CF809123
:100BA000770383FD21C08091780381FD1FC0ECCFC6
:100BB0008091770385FD1CC01DC08091770385FD62
:100BC00019C016C08091770386FD16C017C08091AA
:100BD000770386FD13C010C089E311C082EE0FC0F9
:100BE00080EE0DC080E00BC086EE09C084EE07C029
:100BF00089E205C085E303C08AE201C081E390E099
:100C000008959091770392FF0DC0282F2871283006
:100C100019F4877F846006C0282F2471243011F4D2
:100C20008B7F886093FF0DC0282F2871283119F41D
:100C3000877E846106C0282F2471243111F48B7EB5
:100C400088612091780320FF0DC0382F387138302B
:100C500019F4877F816006C0382F3171313011F46B
:100C60008E7F886021FF0DC0282F2871283119F44C
:100C7000877E816106C0282F2171213111F48E7E7B
:100C8000886194FD877E0895E82FF0E0EE0FFF1F46
:100C9000EF5CFC4F808191810895089580EA8A95E8
:100CA000F1F7089500C008950C944E0608950C9431
:100CB00056060C9457060C9456060C945B06F89452
:100CC000E82FE295EF70F0E031A1282F2F7081E03E
:100CD00090E001C0880F2A95EAF7982F909593230A
:100CE00091A392A1892B82A378940895CF93DF9347
:100CF000CDE6D1E089910E945F0681E0C337D80735
:100D0000C9F7CDE5D1E089910E945F0681E0CD363B
:100D1000D807C9F7E5E2F3E0A1E3B3E081E393E0AC
:100D2000119211921D921D928E179F07C9F786E0AE
:100D30000E943107DF91CF910C94AF037F928F9285
:100D40009F92AF92BF92CF92DF92EF92FF920F935A
:100D50001F93CF93DF9305E213E08DE6E82E81E049
:100D6000F82EC0E0D0E0712CAA24A394B12C470146
:100D7000F7018081F894E82FE295EF70F0E021A16F
:100D80008F70A50102C0440F551F8A95E2F7CA0172
:100D9000922F982B91A392A18095892382A3789476
:100DA0000E945206EDE5F1E020E030E0C12CD12CAC
:100DB0004191A42FA295AF70B0E090968C9190E0F5
:100DC0004F7002C0959587954A95E2F780FD08C05F
:100DD000C501022E02C0880F991F0A94E2F702C0D3
:100DE00080E090E0C82AD92A2F5F3F4F203131059B
:100DF000F9F65FEFE51AF50AF40180810E945F06BB
:100E0000C530D10511F00E945406F801808191810E
:100E1000C816D90621F0D182C08281E001C080E0ED
:100E2000782A21960E5F1F4FC630D10509F09FCF5B
:100E3000272D46E061E373E085E293E00E943207EC
:100E40000E94BB03872DDF91CF911F910F91FF90DF
:100E5000EF90DF90CF90BF90AF909F908F907F905A
:100E600008950895FF920F931F93CF93DF93F82E69
:100E7000092F162FD72FC42F222349F081E080930A
:100E8000D4010E9478239093D3018093D201809162
:100E9000D4018823D9F08091D2019091D3010E948E
:100EA0009023069798F0EF2DF02FA12FBD2F80E013
:100EB00090E04C2F50E08417950734F42191319144
:100EC0002D933D930196F7CF1092D401DF91CF91EE
:100ED0001F910F91FF9008958091DB0180FF0BC05F
:100EE0006091090185E0689FB001112475956795AF
:100EF000759567952BC081FF09C06091090185E058
:100F0000689FB00111247595679520C082FF07C0C6
:100F10006091090185E0689FB001112417C090918C
:100F2000DA019923D1F060910801961788F7209192
:100F3000090185E0289F90011124929FA001939FB1
:100F4000500D112470E0CA010E94812C6038710597
:100F500040F46115710519F406C065E070E0862F54
:100F600008958FE7089581E008958091DB0180FF67
:100F700008C06091050170E0759567957595679556
:100F800021C081FF06C06091050170E075956795ED
:100F900019C082FF04C06091050170E010C09091FB
:100FA000D901992399F0609104019617A0F78091D7
:100FB0000501899FC001112470E00E94812C6038D6
:100FC000710540F46115710519F406C061E070E027
:100FD000862F08958FE7089581E008958D3E21F4CE
:100FE0000E946C07819504C08E3E29F40E946C0714
:100FF0008093DF0108958F3E21F40E946C07819554
:1010000004C0803F29F40E946C078093DE0108959C
:10101000893F19F40E94B50705C08A3F31F40E9448
:10102000B50781958093E00108958B3F21F40E94DC
:10103000B507819504C08C3F29F40E94B5078093C1
:10104000E10108959FE0980F983078F421E030E0B6
:10105000A90102C0440F551F9A95E2F7CA01909169
:10106000DD01892B8093DD0108958D3F21F480916E
:10107000DB0181600BC08E3F21F48091DB01826037
:1010800005C08F3F29F48091DB0184608093DB01F0
:1010900008958D3E39F49091DF0197FF35C010928D
:1010A000DF0159C08E3E29F49091DF011916BCF37F
:1010B0002BC09091DE018F3E29F497FF25C010923E
:1010C000DE0149C0803F19F41916CCF31DC0909180
:1010D000E001893F29F41916BCF41092E0013BC0ED
:1010E0008A3F19F497FF10C0F8CF8B3F39F49091E5
:1010F000E10197FF09C01092E1012DC08C3F21F45E
:101100009091E1011916BCF39FE0980F983080F49C
:1011100021E030E0A90102C0440F551F9A95E2F783
:10112000CA0180959091DD0189238093DD0113C070
:101130008D3F21F48091DB018E7F0BC08E3F21F427
:101140008091DB018D7F05C08F3F29F48091DB0109
:101150008B7F8093DB018091DE01811106C080913D
:10116000DF01811102C01092DA018091E00181114A
:1011700006C08091E101811102C01092D901089549
:101180000E9478232091DE01211104C02091DF010B
:10119000222321F09093D8018093D7012091E00180
:1011A000211104C02091E101222321F09093D60166
:1011B0008093D5018CED91E00C94B615EF92FF92DF
:1011C0000F931F93CF93DF9300D000D000D0CDB703
:1011D000DEB786E0ECEDF1E0DE01119601900D92B4
:1011E0008A95E1F7E090DE01F090DF010091E001E7
:1011F0001091E1011092DE011092DF011092E001E6
:101200001092E101E11003C0FF2009F45DC080915C
:10121000D7019091D8010E949023AC019091DA01FE
:10122000992339F020910A0130E02417350758F04E
:101230004BC020910B018AE0289F900111242417B4
:10124000350718F041C09F3F19F09F5F9093DA0176
:10125000EE2061F00E946C071E1414F09FEF01C095
:1012600091E0989F902D11249093DE01FF2061F072
:101270000E946C071F1414F09FEF01C091E0989F2B
:10128000902D11249093DF013091DE013323E1F0A2
:101290002091DF012223C1F045EB3403C00111246A
:1012A000992319F09093DE0103C081E08093DE0161
:1012B00035EB2303C0011124992319F09093DF012A
:1012C00003C081E08093DF01011103C0112309F401
:1012D0005DC08091D5019091D6010E949023AC0110
:1012E0009091D901992339F02091060130E024171B
:1012F000350758F04BC0209107018AE0289F9001E4
:1013000011242417350718F041C09F3F19F09F5F43
:101310009093D901002361F00E94B507101614F0D4
:101320009FEF01C091E0989F902D11249093E001D0
:10133000112361F00E94B507111614F09FEF01C050
:1013400091E0989F902D11249093E1013091E0015C
:101350003323E1F02091E1012223C1F045EB340376
:10136000C0011124992319F09093E00103C081E09A
:101370008093E00135EB2303C0011124992319F078
:101380009093E10103C081E08093E1018091DE014F
:1013900081110BC08091DF01811107C08091E001B4
:1013A000811103C08091E10181110E94C008EB828C
:1013B000FC820D831E8386E0FE013196ACEDB1E028
:1013C00001900D928A95E1F726960FB6F894DEBF4C
:1013D0000FBECDBFDF91CF911F910F91FF90EF9086
:1013E0000895ECEDF1E086E0DF011D928A95E9F7C2
:1013F0001092DA011092D9011092DB010895EF9258
:10140000FF920F931F93CF93DF938B01682F1111DE
:101410000AC0442329F0E82FF0E0E254FC4F649125
:10142000762F862F75C0212F30E0E82FF0E044237F
:1014300021F0E254FC4FE491F0E046E0049FC0014B
:101440001124CFEFD0E0BE010E946D2C4BEA460381
:10145000C001479F900D1124800F911D800F911D99
:10146000982F990F890FAE01421B530B4E9FD0014D
:101470004F9FB00D5E9FB00D11249B2F189FA001B0
:101480001124452F55278E01041B150B0E9FA0011B
:101490000F9F500D1E9F500D11247E01E81AF10878
:1014A000E29E8001E39E100DF29E100D1124212F6B
:1014B0003327C21BD30BCE9F9001CF9F300DDE9FF1
:1014C000300D112462307105A9F048F461157105E1
:1014D00069F061307105C9F48B2F752F0DC0643030
:1014E000710581F058F06630710579F47E2F8B2FED
:1014F000932F0DC0832F7B2F9E2F09C08E2F7B2F04
:10150000952F05C08E2F732F02C07E2F852F692F38
:10151000DF91CF911F910F91FF90EF90089541E0DF
:101520000E94FF09089508950E948F0A0895CF939D
:10153000DF93762FE901682F842F0E94940A798324
:1015400068838A83DF91CF91089580913D03282F8E
:10155000269530E02115310519F48170826005C0AF
:101560002B32310524F08170846580933D0308950A
:1015700088E090E00C945F2DCF92DF92EF92FF9283
:101580006B017C010E94A50AB701A60188E090E0EA
:10159000FF90EF90DF90CF900C947D2DEDE3F3E082
:1015A00083E0808311828FEF828383831482608142
:1015B0007181828193810C94BC0A80913D0380FFEC
:1015C00002C08695089580E008959091410393307C
:1015D00018F49F5F90934103882351F060913D037D
:1015E00070913E0380913F03909140030C94BC0A9C
:1015F000089581E00C94E50A90914103992319F034
:10160000915090934103882351F060913D03709174
:101610003E0380913F03909140030C94BC0A0895CF
:1016200081E00C94FC0A70E00C943F13609110016F
:1016300080913D0380FF0AC080910F0123E0829FCB
:10164000C00111248E5B9C4F0C94130B80911101EF
:1016500090911201891780F7E82FF0E09F01220F87
:10166000331FE20FF31FEE5BFC4F118210821282D8
:101670008F5FF0CF90913D0390FF16C090911101C4
:1016800020911201921770F4E92FF0E0DF01AA0F08
:10169000BB1FEA0FFB1FEE5BFC4F8183608342831D
:1016A0009F5FF0CF0C94160B0895CF93DF9300D07B
:1016B0001F92CDB7DEB790913D0390FF0AC09E0107
:1016C0002F5F3F4F0E94970A4B8169818A810E9458
:1016D0003A0B0F900F900F90DF91CF910895CF9319
:1016E000DF93EC01EC81F0E0E754FD4F4491EDE332
:1016F000F3E0628181810E94550B8C818F5F8C8326
:10170000DF91CF910895CF93DF93EC01EDE3F3E008
:10171000438162818C810E94550B8C818F5F8C8309
:10172000DF91CF9108950F931F93CF93DF9300D054
:101730001F92CDB7DEB78C018091E20181110AC002
:101740009E012F5F3F4F4FEF6FEF0E94970A8A81F4
:101750008093E201F8018481813051F028F08230D9
:1017600061F44091E2010AC08091E20140E007C0CB
:101770006091E20140E080E003C040E080E060E092
:101780000E943A0BF801848190E0019663E070E0DA
:101790000E94812C84830F900F900F90DF91CF9146
:1017A0001F910F910895AF92BF92CF92DF92EF9267
:1017B000FF920F931F93CF93DF9300D01F92CDB76B
:1017C000DEB7182FF62E042FE22E90913D0390FFE6
:1017D0006DC0E92FE695AE2FB0E0AD58BE4F8C91AD
:1017E00080933E029E7F923061F49E012F5F3F4FB7
:1017F000812F0E94970A4B8169818A810E943A0B4E
:1018000043C0823019F4009140033EC0863019F481
:1018100010913E0339C08930D9F38931A9F5E951D6
:101820008E2F8170D82EE695F0E0E754FC4FA590FE
:10183000B490C12CBB2460911301C61618F52C2D51
:1018400030E0A29EC001A39E900DB29E900D112487
:1018500070E00E946D2C812FD11002C0860F01C054
:10186000861B90911101290F311DA901440F551FAD
:10187000240F351F2E5B3C4F402F6F2D0E94970A7F
:10188000C394D9CF0E94160B10933E03F0923F03EE
:1018900000934003EE2051F060913D0370913E03B0
:1018A00080913F03909140030E94BC0A0F900F90DB
:1018B0000F90DF91CF911F910F91FF90EF90DF90EC
:1018C000CF90BF90AF900895EDE3F3E09181282F82
:1018D0004381628188E0890F0C94D30B81E00C94E2
:1018E000640CEDE3F3E09181282F4381628188EF5E
:1018F000890F0C94D30B81E00C94710CEDE3F3E0B1
:10190000628128E0620F08F46FEF282F4381818104
:101910000C94D30B81E00C947E0CEDE3F3E0628138
:1019200028E0621B08F460E0282F438181810C9439
:10193000D30B81E00C948D0CEDE3F3E0438128E0C0
:10194000420F08F44FEF282F628181810C94D30B52
:1019500081E00C949C0CEDE3F3E0438128E0421B12
:1019600008F440E0282F628181810C94D30B81E040
:101970000C94AB0C20E00C94D30BFF920F931F93AD
:10198000CF93DF93EC01F12C0FEF10E06091130186
:10199000F616F0F4809111012F2D30E0280F311D43
:1019A000C901880F991F280F391F2E5B3C4F70E02B
:1019B000C8010E94812C962F8C8140914003609138
:1019C0003F03F99E800D11240E94970AF394DECF05
:1019D0000E94160B9A818C8190FF02C08F5F01C01C
:1019E00081508C83DF91CF911F910F91FF900895CB
:1019F000BF92CF92DF92EF92FF920F931F93CF93FC
:101A0000DF93FC01828180FF02C00FEF01C001E083
:101A100010E080911301181708F040C08091110167
:101A2000C12ED12CE601C80FD11DCE01880F991F00
:101A3000C80FD91FCE5BDC4F198218821A8234E09E
:101A4000E32EF12CB12C8091E4018B0D813114F047
:101A50008F7005C087FF03C090911301890F082E76
:101A6000000C990BC816D90691F4809140038E9D05
:101A7000A0018F9D500D112455954795559547957B
:101A80009E0160913F0380913E030E94970AB00E31
:101A9000F1E0EF1AF108B9F61F5FBBCF0E94160BF9
:101AA0008091E401013031F4811102C08091130171
:101AB000815007C090E001966091130170E00E9490
:101AC000812C8093E401DF91CF911F910F91FF90C2
:101AD000EF90DF90CF90BF900895CF938091110148
:101AE00090911201891770F4E82FF0E09F01220F06
:101AF000331FE20FF31FEE5BFC4F11821082128244
:101B00008F5FF0CFC0E060911301C617C0F5EC2FD6
:101B1000F0E070E0CF010E94812C20911101820F32
:101B20002091E301022E000C330B90E0E217F30743
:101B3000CCF020910E01022E000C330B2E173F0724
:101B40008CF09C01220F331F820F931F9C012E5B90
:101B50003C4F4091400360913F0380913E030E94BF
:101B6000970A0BC0FC01EE0FFF1F8E0F9F1FFC0199
:101B7000EE5BFC4F118210821282CF5FC4CF0E94B5
:101B8000160B20910D018091E301820F8093E301F8
:101B900090910E01920F90930E0119165CF4082E8D
:101BA000000C990B4091130150E0415051098417EA
:101BB00095071CF0219520930D01CF9108958F92E8
:101BC0009F92AF92BF92CF92DF92EF92FF920F93CC
:101BD0001F93CF93DF938C01FC014481C42FD0E08D
:101BE0009E01DE010E94C52C9B01AC010E94DB2CF2
:101BF0006B017C01E0E2F0E0EC1BFD0BA5E5B0E041
:101C00009B01AC010E94DB2C4B015C019F01DF01B9
:101C10000E94BD2C9B01AC010E94E62C9B01AC01F3
:101C20002C0D3D1D4E1D5F1DC501B4010E94952C5C
:101C3000C22FD22F2A3228F4F3E02F9F90011124D3
:101C40000DC025E530E02C1B3109C901880F991F13
:101C5000280F391F37FF02C02F5F3F4F359527955B
:101C6000C22FC095F12C85E5E82EED1A8091130165
:101C7000F816C8F4F1FC02C08E2D01C08D2F909192
:101C800011012F2D30E0290F311DA901440F551FDF
:101C9000240F351F2E5B3C4F4C2F60913F030E9459
:101CA000970AF394E3CF0E94160BF8018481811107
:101CB00002C091E003C0803219F49FEF90930C01B1
:101CC00090910C01890FF8018483DF91CF911F91CE
:101CD0000F91FF90EF90DF90CF90BF90AF909F90CB
:101CE0008F9008950F931F93CF93DF93EC0100E043
:101CF00010E080911301282F30E00217130724F51C
:101D0000909111019801290F311DA901440F551F10
:101D1000240F351F2E5B3C4F869590E04C810817B1
:101D200019071CF4442331F002C0411103C0409153
:101D3000400301C040E060913F0380913E030E9458
:101D4000970A0F5F1F4FD5CF0E94160B8C8190E032
:101D50000196817099278C83DF91CF911F910F910C
:101D600008957F928F929F92AF92BF92CF92DF920F
:101D7000EF92FF920F931F93CF93DF93FC0182802A
:101D8000748081E08483E9EBF2E09490E8E3F3E08F
:101D9000E491A12CF5E0BF2ECC24CA94D12CE919F2
:101DA0000E2F10E080911301A81608F0A2C0EA2CB3
:101DB000F12C22E0281568F0BE9CF001BF9CF00DCC
:101DC0001124EB51FE4F80913E03808380913F03AD
:101DD000818371100AC0BE9CF001BF9CF00D1124DC
:101DE000EB51FE4F138212826AC0BE9CE001BF9C81
:101DF000D00D1124CB51DE4F8B818823F9F0815017
:101E00008B832FEF829FC00111246C8170E00E94B0
:101E10006D2CFB01FF27E754FD4F8491E82FE91952
:101E20002FEFE29FC0011124B8010E946D2C809118
:101E30004003689FB00111247A8341C00E943A2D6B
:101E4000209140032695215830E0A901440F551FE9
:101E5000322F2227240F351F232F33278217930772
:101E600074F582E0881588F40E943A2DB6010E942C
:101E7000812C88830E943A2D20913F032695622F62
:101E800070E00E94812C280F2983BE9CF001BF9C2A
:101E9000F00D1124EB51FE4F1282809140038431EA
:101EA00020F0893C18F088EC01C084E1BE9CF00170
:101EB000BF9CF00D1124EB51FE4F848383838091EE
:101EC00011019701280F311DC901880F991F280F93
:101ED000391F2E5B3C4FBE9CF001BF9CF00D1124BE
:101EE000EB51FE4F4281618180810E94970AA39449
:101EF00059CFDF91CF911F910F91FF90EF90DF901D
:101F0000CF90BF90AF909F908F907F900C94160BC6
:101F1000EDE3F3E080818E7F808360817181828137
:101F200093810E94BC0A10923F022FEF80E792E05B
:101F3000215080409040E1F700C000000C94160B47
:101F4000EDE3F3E080818E7F808310923F022FEFDC
:101F500080E792E0215080409040E1F700C000000F
:101F60000C94160B10923F0280913C0281110AC022
:101F700081E080933C0280913D03817080933B021D
:101F80000C94A00F089560913D03669570E04BE0BE
:101F900050E084E191E00E944A2D892B19F481E000
:101FA00080933F020E9478239093360280933502FB
:101FB000089590913D0390FF35C09170811102C04A
:101FC000926006C08B3210F0946502C0880F982B87
:101FD00090933D03662351F060913D0370913E0361
:101FE00080913F03909140030E94BC0A60913D03A1
:101FF000669570E04BE050E084E191E00E944A2D4C
:10200000892B19F010923F0202C00E94C30F81E099
:10201000809338024091400360913F0380913E03DA
:102020000C94BA0C0895682F90913D03969581E029
:10203000890F8B3208F081E00C94D90F81E00C9469
:102040001310682F90913D0396958FEF890F09F437
:102050008AE20C94D90F81E00C94211061E00C9479
:10206000D90FEDE3F3E080818160808386950C9445
:102070002E1080913D0380FD0C94880F0C9431103C
:1020800060E00C94D90F80913D0281112EC00E9416
:102090006721811104C00E9421220E94CE0A0E9461
:1020A000B80A60933D0370933E0380933F0390937F
:1020B00040036E7F61F40E94CE0A0E94B80A6093CA
:1020C0003D0370933E0380933F03909340030E942F
:1020D000A50A10923F0280913D0380FF03C08695C0
:1020E0000E94401081E080933D020895EDE3F3E00B
:1020F00080818160808386950C94401010923C0210
:1021000080913B0281110E9476100C94C30F0F93B3
:102110001F93CF93DF9380913F02882309F495C0EA
:1021200080913E02E0913D03E695E81BE093370283
:10213000823049F4F0E0EB54FD4FE491CE2FD0E033
:102140000FE61BE059C0863049F4F0E0EE54FD4F35
:10215000E491CE2FD0E003E81BE04EC0893051F46B
:10216000E695F0E0E155FD4FE491CE2FD0E00DEB88
:102170001CE042C08F3051F4E695F0E0E455FD4F8D
:10218000E491CE2FD0E008EF1CE036C0853149F451
:10219000F0E0E755FD4FE491CE2FD0E00DE61DE0D5
:1021A0002BC08831D9F0833239F4E7EAF2E0C591E7
:1021B000D49103E91BE020C08432A9F08532C1F438
:1021C0008E2F63E00E94612CE92FF0E0EC55FD4F6B
:1021D000E491CE2FD0E001EB1EE00EC0C8E2D0E0CB
:1021E0000FED1DE009C0C4EFD1E002E71EE004C01E
:1021F000C0EDD7E003E91AE080913802882361F04E
:10220000109238020E947823909336028093350210
:1022100010923A02109239020E947823E09135021E
:10222000F09136028E1B9F0B8F3F9F4770F4EC0F8F
:10223000FD1FF0933602E093350285E392E0F8014A
:10224000DF91CF911F910F910994DF91CF911F9151
:102250000F910895882311F0FA0101C0FB01099440
:10226000CF93DF93C82FD62F0E94DD0A8C1740F042
:102270000E94DD0A8D1720F4DF91CF910C941E107F
:102280008C2FDF91CF910C942E100F931F93CF932F
:10229000FB01C281CC2309F463C08C010E94B420ED
:1022A0008272F801E35CFC45E431F10508F059C0A5
:1022B000EA5AFF4F0C94B72C0E94391006C04BE22B
:1022C00050E16EE170E10E942A11C0E04AC04EE187
:1022D00050E16BE270E1F7CF4BE75CE06EE67CE04B
:1022E000F2CF4EE65CE06BE77CE0EDCF49E95CE0E5
:1022F0006AE87CE0E8CF4AE85CE069E97CE0E3CFAB
:1023000047EB5CE068EA7CE0DECF48EA5CE067EB44
:102310007CE0D9CF40E15BE069EF7AE0D4CF49EFD0
:102320005AE060E17BE0CFCF81E017C065E082E05A
:1023300010C068E086E00DC06EE089E00AC064E18C
:102340008FE007C067E185E104C088E106C062E272
:1023500089E10E943011B9CF83E20E942E10B5CFDF
:10236000C1E08C2FCF911F910F9108950E9467219A
:10237000811102C00E9421220E94A2218093720337
:10238000282F26952695269530E02630310524F015
:1023900087708862809372038091720380FF04C00B
:1023A00086958695869501C080E00C94C512209193
:1023B0007203822F869586958695482F50E045308A
:1023C000510554F48F5F982F990F990F990F822F11
:1023D0008770892B80937203809172038160809350
:1023E00072030E94A6218091720386958695869538
:1023F0000C94C51280917203982F96959695969598
:10240000A1F0915E990F990F990F8770892B809396
:102410007203887F91E009F490E08091720390FB51
:1024200080F9809372030E94A621809172038695A1
:10243000869586950C94C5128091720380FD13C019
:10244000816080937203813019F489E08093720374
:10245000809172030E94A6218091720386958695D1
:1024600086950C94C51208958091720380FF08C070
:102470008E7F809372030E94A62180E00C94C51287
:1024800008958091720380FD0C9434120C941C12F8
:1024900090917203892F8695869586958F5F8F71AF
:1024A0009770863038F4880F880F880F892B8093B7
:1024B000720302C09093720380917203887F91E04F
:1024C00009F490E08091720390FB80F9809372038D
:1024D0000E94A621809172038695869586950C941C
:1024E000C512863008F085E0909172039770282F0E
:1024F000220F220F220F922B90937203987F21E0DC
:1025000009F420E09091720320FB90F990937203FC
:102510000C94C5120E947112809172030C94A62132
:102520009C01FB018281882349F12E3BFCE53F079A
:10253000C9F040F42C3BECE53E0769F02D3B3C45EF
:1025400061F00895203C9CE5390791F070F0213C42
:102550003C4589F0089585E001C080E00E948A1220
:1025600080E008950E94FA11FBCF0E94D711F8CFA6
:102570000E944112F5CF0E944812F2CF81E00895E7
:10258000269A2E9808952E980895CF92DF92EF9272
:10259000FF92CF93C82F863050F4811109C08091EB
:1025A00080008F7D809380000E94C31206C0C5E02A
:1025B000809180008062809380002C2F30E0AFEF0C
:1025C000BFEF0E94C52C25E030E040E050E00E94C3
:1025D000952CB42FA32F922F8827492F5A2F6B2F7A
:1025E0007727CA014C3724E1520728F469E070E0EC
:1025F0000E946D2C29C0DB01CA018A50974DAF4F54
:10260000BF4F6627782F892F9A2F25EF38E241E0B8
:1026100050E00E94952C69017A01CA01B9010E941B
:10262000512C9B01AC01C701B6010E94512CBB2764
:10263000A92F982F872F009721E0A207B10511F04D
:10264000BC0102C06FEF7FEF70938B0060938A0034
:10265000CF91FF90EF90DF90CF90089508950E9462
:10266000C01282E28093800089E1809381008FEF25
:102670009FEF90938700809386000C94B6116A9A1E
:102680002EB12B7F3EB134604FB7F894FC01CB01E3
:10269000880F991F680F791F6E0F7F1FE617F707C6
:1026A00089F0819198E03EB9000000C087FF2EB903
:1026B000880F000000C000C000C02EB900C09A956D
:1026C00091F7ECCF4FBF8FE594E00197F1F700C091
:1026D000000008950F931F93CF93DF93C42FD22F41
:1026E000FC0182818823C9F0409342020E94782332
:1026F000909341028093400280E28C0F883008F072
:1027000057C0C77081E001C0880FCA95EAF7DF9112
:10271000CF911F910F910C945B1880914202481346
:1027200030C080914002909141020E949023883CE9
:10273000910538F510E21D0FCD17B9F080E28C0F2E
:10274000883040F4C77081E001C0880FCA95EAF76D
:102750000E946218183028F581E09D2F977001C003
:10276000880F9A95EAF70E945B18802F0E945218F2
:102770001830F0F4D77081E001C0880FDA95EAF7DD
:102780000AC080E28C0F883098F4C77081E001C0E5
:10279000880FCA95EAF7DF91CF911F910F910C94A2
:1027A0006218802FDF91CF911F910F910C945218D6
:1027B000DF91CF911F910F9108950F939C01CB0151
:1027C000243F4CE5340731F188F4293DFCE53F070F
:1027D000D9F02A3D4CE5340779F1283D3C45A9F56F
:1027E00006E221EE41EE68ED7CE52BC0263FFCE5DC
:1027F0003F07E1F0A8F0273F3C4539F507E225EE19
:1028000046EE67EF7CE51DC007E225EE45EE69ED7B
:102810007CE517C006E221EE40EE64EF7CE511C0D6
:1028200007E225EE44EE65EF7CE50BC006E221EE03
:1028300042EE66EF7CE505C008E221E045EE6AED78
:102840007CE50E946A1380E008C0FC018281882335
:1028500019F01092420201C081E00F910895CF93C8
:10286000DF93EC01FB018281882309F41FC1C23090
:10287000FCE5DF0708F41BC1C6319CE5D90738F039
:102880009E012B5F3C452930310508F010C10E94A4
:1028900084219093780380937703C031ECE5DE07C1
:1028A00009F4C3C008F041C0C8308CE5D80709F46A
:1028B0009AC0F0F4C430ECE5DE0709F487C068F490
:1028C000C2308CE5D80709F477C0C330DC4509F085
:1028D000E3C080917703826076C0C630ECE5DE0706
:1028E00009F46EC008F07BC08091770388606BC0EC
:1028F000CC308CE5D80709F485C068F4CA30ECE523
:10290000DE0709F474C008F079C00E94E81A8091CB
:102910007703806858C0CE308CE5D80709F476C0BC
:1029200008F07FC0809177038BC0CC3FECE5DE07D9
:1029300009F44FC018F5C3318CE5D80709F47DC000
:1029400078F4C131ECE5DE0709F473C0C231DC452F
:1029500009F0A2C00E94E81A809177038F7733C0F4
:10296000C5318CE5D80709F472C008F486C0CB3FA6
:10297000DC4509F091C0809178033EC0C115FDE5AA
:10298000DF0709F45FC058F4CE3F9CE5D90709F48E
:1029900044C008F43FC08091780382602DC0C230EB
:1029A000FDE5DF0709F475C008F45DC0C330DD45FF
:1029B00009F072C080E06EC080917703816003C02F
:1029C0008091770380618093770366C0809177035D
:1029D00011C0809178038260809378035DC08091FC
:1029E00077038062F0CF809177038064ECCF809191
:1029F000770388608460E7CF8160EECF80917703B2
:102A00008E7FE1CF809177038D7FDDCF809177033B
:102A1000877FD9CF8091780318C0809178038D7F0C
:102A2000DBCF809177038F7ECECF809177038F7D30
:102A3000CACF809177038F7BC6CF80917703877F42
:102A40008B7FC1CF809178038D7F8E7FC5CF8091A2
:102A5000770382FB222720F991E0922790FB82F9ED
:102A600090FB83F9B0CF80917803982F9095917067
:102A70008E7F892B90FB81F9AFCF0E94E81A80915D
:102A8000770387FB222720F991E0922790FB87F9B3
:102A90009ACF81E00E94232280917703909178035E
:102AA0000E9495210E94E81A80E001C081E0DF9138
:102AB000CF910895CF93DF9386319C4541F5EB018B
:102AC0000E94B420982F8A8120911F01309120010B
:102AD000882379F09A7A81E009F480E080934302B8
:102AE000911102C069E201C065E3C9010E94BE22E2
:102AF0000AC080914302811102C069E201C065E30E
:102B0000C9010E94C9220E94022180E001C081E027
:102B1000DF91CF91089590934902809348020895E0
:102B2000E0914802F0914902309721F00190F08144
:102B3000E02D099480E00895E0914802F091490267
:102B4000309799F020912B01222359F0209177039F
:102B500027FF07C0DC012C9111962C93119725E0DB
:102B60002C930280F381E02D09940895E0914802AE
:102B7000F0914902309739F022E0DC012C93048077
:102B8000F581E02D09940895209146023091470285
:102B90002817390771F09093470280934602E0911D
:102BA0004802F0914902309721F00680F781E02D2C
:102BB000099408952091440230914502281739075D
:102BC00071F09093450280934402E0914802F091A5
:102BD0004902309721F00084F185E02D0994089591
:102BE0000E94842360935B0270935C0280935D0279
:102BF00090935E026093570270935802809359023B
:102C000090935A02089585B7806885BF85B780681C
:102C100085BF089581E008950C940A1608950C94D8
:102C20000E160C940E160C9411160C940E160C9491
:102C300015160C940E160E94031685E691E20E946A
:102C4000E9230E9419160C9417160E946F230E9404
:102C500076060E943A240E94B6110E9443100C94FA
:102C600013166F927F928F929F92AF92BF92CF92E4
:102C7000DF92EF92FF920F931F93CF93DF93CDB725
:102C8000DEB72A970FB6F894DEBF0FBECDBF0E9405
:102C90000F160E940E160E949E0681110E94F015CA
:102CA0003BE4832E32E0932E00E010E0C02E802F14
:102CB0000E9444065C01F401619071904F01682606
:102CC000792661147104B1F40F5F1F4F06301105AE
:102CD00069F78FEF89838A831B820E947823816042
:102CE000782F9D838C8349815A816B818D810E94CD
:102CF000EF163AC08091010381FD0E944D06D12C50
:102D0000EE24E394F12CC3018E219F21892B29F11C
:102D10000E940C168823A9F0DE82CF82AE20BF204D
:102D200081E0AB2809F480E088870E9478238160E5
:102D3000782F9A8789874E815F8168858A850E946E
:102D4000EF16000F111FF801E55BFD4F80819181A7
:102D5000E826F926F182E08207C0D394EE0CFF1C2E
:102D6000F0E1DF12D0CFB0CF0E9487100E942E1367
:102D70000E94DE080E94901590914A028917D1F0B6
:102D80000E94901580934A022A960FB6F894DEBFEF
:102D90000FBECDBFDF91CF911F910F91FF90EF90AC
:102DA000DF90CF90BF90AF909F908F907F906F906B
:102DB0000C942B042A960FB6F894DEBF0FBECDBF3D
:102DC000DF91CF911F910F91FF90EF90DF90CF9007
:102DD000BF90AF909F908F907F906F900895DF92FB
:102DE000EF92FF920F931F93CF93DF93CDB7DEB790
:102DF0002B970FB6F894DEBF0FBECDBFF42E052F74
:102E0000162FE72ED82E61110E94D420FE01319694
:102E100086E0DF011D928A95E9F77E2D4F2D502F18
:102E2000612F8D2D9E810E94A11D2B960FB6F894C7
:102E3000DEBF0FBECDBFDF91CF911F910F91FF90ED
:102E4000EF90DF900895FC01808191810E947520B0
:102E50000895CF93882309F4A4C0C82F8238C1F401
:102E60000E94901581FD9DC069E380911F019091A2
:102E700020010E94BE220E9402212FEF81EE94E0E9
:102E8000215080409040E1F700C0000069E319C084
:102E9000833801F50E94901580FD83C063E5809121
:102EA0001F01909120010E94BE220E9402212FEF5B
:102EB00081EE94E0215080409040E1F700C0000096
:102EC00063E580911F01909120010E94C922CF915A
:102ED0000C9402218438C1F40E94901582FD61C0D7
:102EE00067E480911F01909120010E94BE220E9400
:102EF00002212FEF81EE94E0215080409040E1F7D5
:102F000000C0000067E4DDCF8CEF8C0F813AD0F475
:102F10006C2F80911F01909120010E943E228823F6
:102F200049F06C2F80911F01909120010E94C922CD
:102F30000E9402216C2F80911F01909120010E941C
:102F4000BE22C5CF80E28C0F883048F4C77081E084
:102F500001C0880FCA95EAF70E94B720B8CFEBE509
:102F6000EC0FE33040F4F0E0E453FE4F808190E05A
:102F7000CF910C94C415E8E5EC0FE73150F4F0E084
:102F8000EE0FFF1FE256FE4F80819181CF910C948E
:102F9000DA15CD3E30F08C2F0E94EE07CF910C94C5
:102FA000C008CF910895882309F464C0823879F469
:102FB0000E94901581FF5EC069E380911F0190918E
:102FC00020010E94BE220E94022169E310C08338C2
:102FD000B1F40E94901580FF4DC063E580911F0100
:102FE000909120010E94BE220E94022163E58091FF
:102FF0001F01909120010E94C9220C940221843863
:1030000079F40E94901582FF35C067E480911F011A
:10301000909120010E94BE220E94022167E4E7CF26
:103020009CEF980F913A10F4682FE1CF90E2980F3F
:10303000983050F4877091E001C0990F8A95EAF7B3
:10304000892F0E94BD20D9CF9BE5980F933020F4A3
:1030500080E090E00C94C41598E5980F973120F427
:1030600080E090E00C94DA158D3E20F00E94490833
:103070000C94C00808951F93CF93DF93182FEB0192
:103080000E942917209741F08FE99FE00197F1F7FF
:1030900000C000002197F6CF812FDF91CF911F91C3
:1030A0000C94D317893319F060E070E002C060E53A
:1030B00070E00C943B18882321F00E94B7200C94F8
:1030C00002210895882321F00E94BD200C94022142
:1030D0000895CF92DF92EF92FF920F931F93CF93B9
:1030E000DF937C01062FC72FFC01D2811581129539
:1030F0001F700E94AD20882399F0DD2389F08C2F6A
:10310000807F803421F080E2800F883048F082E0B8
:103110000E944C210E94AD2091E0D82ED92601C0FA
:10312000D12CCC2EC2948FE0C8228C2D90E0FC01D3
:10313000E659FF4F0C94B72C8C2F807FCF708823DB
:1031400011F0C295C07FDD2399F0CC2309F48DC125
:1031500080E2800F883010F0011104C08C2F0E9493
:10316000B72003C08C2F0E94C7200E9402217DC17E
:10317000802F0E94D317CC2309F49CC180E2800FDA
:10318000883010F0011104C08C2F0E94BD2003C0B4
:103190008C2F0E94CD200E9402218CC18C2F807F19
:1031A000CF70803211F0C295C07F002319F001303A
:1031B000C9F022C0DD2371F0112341F0113031F448
:1031C0000E94E7208C2B0E94EF2074C10E94E72010
:1031D0008C2B1DC0112319F0113009F46BC10E9412
:1031E000F82025C0DD2321F0163008F063C10EC0A1
:1031F000153008F05FC11BC0DD2361F0112331F0F1
:10320000F701858180FF31C18F7085838C2F0E94EB
:103210005B1850C1112359F0093309F037C1FFEF92
:1032200027EE83E0F15020408040E1F72DC18C2F44
:103230000E9462183FC18C2F86958695837019F085
:10324000813061F037C1DD2321F0802F9C2F9370F6
:1032500002C080E090E00E94C41534C1DD2321F05B
:10326000802F9C2F937002C080E090E00E94DA15BE
:1032700029C1802FDD2319F00E94EE0702C00E94B1
:1032800049080E94C0081EC18C2F837009F045C0F8
:10329000D11114C1402F429546954770440F440FF9
:1032A000602F6F70862F90E0A0E0B0E0042E04C085
:1032B000880F991FAA1FBB1F0A94D2F704FF10C0E2
:1032C0000FE010E020E030E004C0000F111F221FCB
:1032D000331F4A95D2F7009510952095309503C07D
:1032E00000E010E09801C695C695C370BC01CD0101
:1032F000602B712B822B932BC23049F058F4C130D4
:1033000019F00E94F21EDAC00E94E01ED7C00E948F
:10331000041FD4C00E94DE1ED1C0DD2319F08C2F03
:10332000817001C08695882309F4C8C0402F42955A
:1033300046954770440F440F602F6F70862F90E0C2
:10334000A0E0B0E0042E04C0880F991FAA1FBB1F85
:103350000A94D2F704FF10C00FE010E020E030E044
:1033600004C0000F111F221F331F4A95D2F700958A
:1033700010952095309503C000E010E09801C695A7
:10338000C695C370BC01CD01602B712B822B932B92
:10339000C23049F058F4C13019F00E94B71F8EC0F6
:1033A0000E94A51F8BC00E94C91F88C00E94181FC1
:1033B00085C0CF70DD2339F08C2F0E943E1F802FF7
:1033C0000E945B187BC0802F0E9462188C2F0E9485
:1033D0005F1F74C0023F01F128F4003F41F0013F3C
:1033E000A1F03FC0033FF9F0043F39F13AC0DD23BB
:1033F00041F0153008F05EC08C2F8F710E94841F41
:1034000059C0163008F056C0F7CFDD2339F08C2FA5
:103410008F710E943E1F4EC0DD23C9F38C2F8F7128
:103420000E945F1F47C0DD2329F08C2F8F710E94FF
:10343000291F40C00E94241F3DC0DD2349F0CF71E9
:103440008C2F0E943E1F63E08C2F0E94372132C0D8
:1034500081E00E944C21123068F182E00E944C21F0
:1034600029C0DD2331F0112391F2802F0E9429170A
:1034700021C0112399F2093349F49FEFE7EEF3E0FD
:103480009150E040F040E1F700C00000802F0E9422
:10349000D31710C04C2F4F70602FC7010E94340407
:1034A0000E944F1E0FC04C2F4F70602FC7010E940B
:1034B000370408C088EF8C0D843020F40E949015EA
:1034C0000E942B04DD20C9F00E94A92080FD15C0B8
:1034D000F70112820E94A3200E943E1FC7010E9492
:1034E0009E1A0E94A320DF91CF911F910F91FF9010
:1034F000EF90DF90CF900C945F1FDF91CF911F91E1
:103500000F91FF90EF90DF90CF9008950F931F934E
:10351000CF93DF93EC01688179818A810E948020BA
:103520008C010E94DB1F0E94CC1EB801CE010E94BC
:103530006918DF91CF911F910F910895CF93DF9379
:10354000EC01988189812B813C81232B31F08F3FC5
:1035500031F481E09F3F19F403C081E001C080E0B5
:1035600080FD19C0CE010E94CD0381110CC00E94C4
:10357000AD20882381F08A81882369F082E0DF9181
:10358000CF910C944C21CE010E94861ACE01DF917E
:10359000CF910C94A403DF91CF91089580E090E047
:1035A0000E94C41580E090E00E94DA150E94D420A9
:1035B0000E94E4200E9402210E94F1090C94C0089C
:1035C00080911F01909120010E94D4220C94CE1A68
:1035D0000E94C4200C94E01AE92FE295EF704E2F60
:1035E00050E0FA013297EE30F105B0F4E658FF4FA3
:1035F0000C94B72C803F91F018F4883E68F40EC00C
:10360000843F51F40BC0883E48F0813F29F406C046
:1036100093FB882780F9089580E0089581E008955C
:103620000E9475200E94EC1A0895CF93DF9300D07A
:1036300000D01F92CDB7DEB70F900F900F900F9074
:103640000F90DF91CF910895CF93DF9300D000D0FA
:1036500000D0CDB7DEB726960FB6F894DEBF0FBE0A
:10366000CDBFDF91CF9108951F93CF93DF93C0918A
:10367000600216E080916102C81799F0D0E01C9FAB
:10368000F0011D9FF00D1124EE59FD4F4081518135
:1036900062817381848195810E94241B2196C77069
:1036A000E9CFDF91CF911F910895409192025091FF
:1036B000930260919402709195028091960290918C
:1036C00097020C94241B0F931F93CF93DF93809149
:1036D000970282958F7009F05DC0809194028823D3
:1036E00009F458C0809160021091610260919202C9
:1036F00070919302C0919502D091960291E06F3F34
:1037000009F090E0292F06E0811709F443C02097C3
:1037100021F07F3F21F030E003C031E001C0322FC3
:1037200090E030FD34C0089FF001099FF00D112496
:10373000DF01AE59BD4F11963C911197371327C049
:103740003C91361324C012963C91129731111FC040
:1037500013964D915C9114974C1B5D0B483C5105A1
:10376000B0F4809197028F70806180939702E9593D
:10377000FD4F80818F708061808382E992E00E949A
:103780009E1ADF91CF911F910F910C94341B0196DB
:103790008770BACFDF91CF911F910F9108959F92BB
:1037A000AF92BF92CF92DF92EF92FF920F931F934F
:1037B000CF93DF93CDB7DEB761970FB6F894DEBF36
:1037C0000FBECDBF8C0185E0F801DE011D96019092
:1037D0000D928A95E1F7F80140815181E280909144
:1037E00092026091930220919502309196022115E8
:1037F000310531F06F3F31F481E09F3F19F403C090
:1038000081E001C080E0F82FF1709F2E80FD46C15D
:10381000F801A380B48082E9C82E82E0D82EF0900F
:103820009402F501E21BF30BFF2009F4DFC0809145
:103830009702E83CF10508F09BC0282F207F09F093
:1038400052C0561313C0491311C0FE2CE1100EC014
:103850008F708061809397020E94551BC6010E9461
:103860009E1A80919702F801858358C1AB2831F0E8
:103870005F3F31F481E04F3F19F403C081E001C0A4
:1038800080E080FD03C081E08E2502C080E090E0F2
:10389000F82FF170FF2E80FF1CC0809160022091F4
:1038A000610236E0821709F417C190E0389FF001F9
:1038B000399FF00D1124EE59FD4F6181561306C05A
:1038C0006081461303C06281E61203C001968770CF
:1038D000E9CFFE2CEE2009F421C18091970281608E
:1038E000809397025AC0561306C0491304C0E110D2
:1038F00002C0F8019FC04D875E878D859E850E941E
:10390000101B882379F1EE2069F120919702822F14
:1039100082958F7090E0029774F08091920290915E
:10392000930298878F831986BB86AA862C87CE013F
:1039300007960E949E1A86E0F801A2E9B2E0019083
:103940000D928A95E1F70E94631B0E94551B0DC0E2
:10395000561729F14D875E878D859E850E94101B25
:1039600081112CC0C8010E949E1AFF24F394D6C076
:10397000282F207F69F77A2DB98AA88A6E2D898928
:103980000E94151B82E992E00E949E1A86E0F601D1
:1039900011928A95E9F70E94551BF12CBFC049137B
:1039A000D9CFE110D7CFF8018583C8010E949E1AB4
:1039B00086E0F60111928A95E9F7B0C0EE2091F207
:1039C00020919702822F82958F7090E002970CF4DD
:1039D000B2CF80919202909193029A8389831B8245
:1039E000BD82AC822E83CE010196A3CFE83CF105C7
:1039F00008F047C0FE2CEE2009F4B4CF561330C0B7
:103A000049132EC02091970220FD21C0822F82955C
:103A10008F70482F50E041155105C9F0F8012583FA
:103A20004F30510541F08F5F982F9295907F822FF4
:103A30008F70892B8583C8010E949E1A86E0F80149
:103A4000A2E9B2E001900D928A95E1F742C086E0CA
:103A5000F801A2E9B2E001900D928A95E1F75EC00B
:103A60004D875E878D859E850E94101B811163CFD7
:103A700080919702816080939702C8010E949E1AEC
:103A80004DC07A2DB98AA88A6E2D89890E94151B8E
:103A900086E0F60111928A95E9F71BC0EE2009F441
:103AA00061CF4D875E878D859E850E94101BF82E05
:103AB000882309F457CF86E0F801A2E9B2E001902B
:103AC0000D928A95E1F782E992E00E9423170E9405
:103AD000631B0E94551B22C04D875E878D859E8586
:103AE0000E947520292F22952F70223028F49F7074
:103AF00039F0811105C00BC0243028F49F7049F4BF
:103B0000805E883020F0C8010E949E1A9F2CF92CFC
:103B100005C0F8019581907F99F7F9CF8F2D6196B7
:103B20000FB6F894DEBF0FBECDBFDF91CF911F91CE
:103B30000F91FF90EF90DF90CF90BF90AF909F904C
:103B400008951F93CF93DF93CDB7DEB72C970FB6B1
:103B5000F894DEBF0FBECDBF4F83588769877A8741
:103B60008B879C87CE0107960E94CF1B8823D1F0BC
:103B70009F8188852A853B85232B31F08F3F31F447
:103B800081E09F3F19F403C081E001C080E080FD27
:103B900047C04F81588569857A858B859C850E94B1
:103BA000241B3EC086E0FE013796DE01119601908F
:103BB0000D928A95E1F7FF81E8856A857B8561151D
:103BC000710531F0EF3F31F481E0FF3F19F403C09C
:103BD00081E001C080E080FD23C02091610230E0DF
:103BE000C9010196877099274091600250E08417BF
:103BF0009507F1F1F983EA837D836C8396E0929FC8
:103C0000D001939FB00D1124AE59BD4FFE013196E6
:103C100001900D929A95E1F7809361020E94341B06
:103C200016E08091600290916102891771F1189FEE
:103C3000C00111248E599D4F0E94CF1B882329F16A
:103C4000E09160021E9FF0011124EE59FD4F40816A
:103C5000518162817381848195810E94241B8091AE
:103C6000600290E001968770992780936002D9CF17
:103C70000E94E81A1092610210926002E2E9F2E0FA
:103C800086E0DF011D928A95E9F72C960FB6F8942D
:103C9000DEBF0FBECDBFDF91CF911F910895EF9290
:103CA000FF920F931F93CF93DF938C01892B09F41D
:103CB0006CC0F12CEE24E394E8012196F801849184
:103CC000843740F4843008F051C0813081F0823074
:103CD00019F15BC0853709F444C0A8F19CE7980F3F
:103CE000903708F052C08F770E94D31741C00E5F03
:103CF0001F4FFE01849190E2980F983050F4877026
:103D0000FE2D01C0FF0F8A95EAF78F2F0E94D72062
:103D100014C00E9429172DC00E5F1F4FFE01849111
:103D200090E2980F983060F48770FE2D01C0FF0F6D
:103D30008A95EAF78F2F0E94DD200E94022119C088
:103D40000E94D31716C00E5F1F4FFE01C491CC23F3
:103D500081F08FE99FE00197F1F700C00000C150AA
:103D6000F6CF0E5F1F4FFE01F49003C00E9429178B
:103D70008E018F2D882309F49FCFEFE9FFE0319763
:103D8000F1F700C000008150F5CFDF91CF911F9176
:103D90000F91FF90EF900895089508950C94CD1E13
:103DA0000C94CE1E0E94D01E6093D8027093D9024C
:103DB0008093DA029093DB020C94CE1A0C94D21EFC
:103DC0000F931F930091D8021091D9022091DA022B
:103DD0003091DB02602B712B822B932B1F910F9163
:103DE0000C94D21E0F931F930091D8021091D90208
:103DF0002091DA023091DB02602371238223932326
:103E00001F910F910C94D21E0F931F930091D80213
:103E10001091D9022091DA023091DB0260277127DC
:103E2000822793271F910F910C94D21E0C94CD1EC4
:103E30000E94161F6093D4027093D5028093D6021D
:103E40009093D7020C94CE1A60E070E0CB010C94F2
:103E5000181F0F931F9341E050E060E070E08A016B
:103E60009B0104C0000F111F221F331F8A95D2F738
:103E7000C901B8011F910F910C94181F0F931F9344
:103E800041E050E060E070E004C0440F551F661F41
:103E9000771F8A95D2F78091D4029091D502A09194
:103EA000D602B091D7028A019B01082B192B2A2B2D
:103EB0003B2BC901B8011F910F910C94181F0F9350
:103EC0001F9341E050E060E070E004C0440F551FD4
:103ED000661F771F8A95D2F740955095609570952B
:103EE0008091D4029091D502A091D602B091D702D0
:103EF0008A019B01082319232A233B23C901B80106
:103F00001F910F910C94181F0F931F9341E050E0E5
:103F100060E070E004C0440F551F661F771F8A954C
:103F2000D2F78091D4029091D502A091D602B0919F
:103F3000D7028A019B01082719272A273B27C90195
:103F4000B8011F910F910C94181F0F931F930091AC
:103F5000D4021091D5022091D6023091D702602B65
:103F6000712B822B932B1F910F910C94181F0F9381
:103F70001F930091D4021091D5022091D602309166
:103F8000D70260237123822393231F910F910C94F6
:103F9000181F0F931F930091D4021091D502209106
:103FA000D6023091D70260277127822793271F916D
:103FB0000F910C94181F089520E1929F800D1124F9
:103FC000E82FE695E695E695877051E001C0550F1C
:103FD0008A95EAF785E0E89FF0011124E856FD4F45
:103FE00020E030E070E04081CB01022E02C09695C7
:103FF00087950A94E2F78170819584278523842729
:1040000081932F5F3F4F2530310569F7089520E1F7
:10401000929F800D1124682F669566956695982F5E
:10402000977085E0689FB001112440E050E080E087
:10403000FB01E40FF51FE856FD4F208130E0092E0B
:1040400002C0369527950A94E2F721703327042E93
:1040500001C0220F0A94EAF7822B4F5F5F4F453071
:10406000510531F70895BF92CF92DF92EF92FF9200
:104070000F931F93CF93DF938C01C090D402D09005
:10408000D502E090D602F090D7028091D8029091AC
:10409000D902A091DA02B091DB02C82AD92AEA2A11
:1040A000FB2ACFE1D0E0D701C6010C2E04C0B695A3
:1040B000A795979587950A94D2F780FD04C021971C
:1040C00090F7B12C07C0BC2EB8018C2F0E9455046C
:1040D0000197A9F38B2DDF91CF911F910F91FF9045
:1040E000EF90DF90CF90BF900895CF93DF93EC01D6
:1040F0000E943320BE010E945504DF91CF910895A4
:104100001F93CF93DF93EB0190915F02992321F0EE
:10411000CB010E94752013C0882349F0CB010E9477
:104120003320182F682FCE010E94DC1F04C0CB0162
:104130000E940720182FBE01812F0E945504DF9195
:10414000CF911F9108958091DC0285958595859585
:1041500008958091DC02877008959091DC02977039
:1041600081E009F480E00895809100030895909122
:104170000003892B8093000308958095909100039C
:10418000892380930003089510920003089590916D
:10419000FF02892B8093FF02089580959091FF0282
:1041A00089238093FF0208951092FF020895909151
:1041B000FE02892B8093FE02089580959091FE0265
:1041C00089238093FE0208951092FE020895809143
:1041D000DD02089508950C94EA200C94EB20909150
:1041E000DD02981721F08093DD020C94ED200895F4
:1041F0008091DD02882329F01092DD0280E00C948A
:10420000ED200895E0911F01F091200180910003BD
:104210008083E0911F01F091200190818091FF0245
:10422000892B8083E0911F01F09120019081809182
:10423000FE02892B80838091DD02882381F0E0914A
:104240001F01F09120019081892B808380911F01B3
:10425000909120010E94282281110E94F8208091D3
:104260001F01909120010C949C150C94EA2098E079
:10427000899F90011124262B2093DC020E943E1F6F
:104280008091DC028595859585950C943521109259
:10429000DC0280E00C9435212091DC0280958223A1
:1042A0008093DC02982F977079F430E0482F082E25
:1042B000000C550B2417350739F0859585958595A4
:1042C0000E945F1F0C944721089580E0089580E0CC
:1042D00090E00E94652D21E08B3E9E4F09F020E08A
:1042E000822F089582E090E00C94572D682F82E091
:1042F00090E00C946B2D83E090E00C94572D682F88
:1043000083E090E00C946B2DCF9384E090E00E94CA
:10431000572DC82F81E290E00E94572D2C2F30E0BE
:10432000A901582BCA01CF910895CF93C92F682FA7
:1043300084E090E00E946B2D6C2F81E290E0CF91A1
:104340000C946B2D86E090E00C94572D682F86E03E
:1043500090E00C946B2DAB01BC018FE090E00C94CD
:104360007D2DAB01BC0183E190E00C947D2D60E0DC
:1043700070E0CB010C94B12160E070E0CB010E94B1
:10438000AB210C94B7216BEE7EEF80E090E00E94B1
:10439000892D60E082E090E00E946B2D60E083E078
:1043A00090E00E946B2D1092D8021092D9021092C8
:1043B000DA021092DB0260E084E090E00E946B2D54
:1043C00060E081E290E00E946B2D60E085E090E08B
:1043D0000E946B2D60E086E090E00E946B2D6FEFF5
:1043E00087E090E00E946B2D40E050E0BA0188E049
:1043F00090E00E947D2D60E08DE090E00E946B2DAA
:1044000040E050E0BA0188E190E00E947D2D60E03C
:1044100087E190E00E946B2D40E050E0BA018CE112
:1044200090E00E947D2D60E080E290E00E946B2D84
:1044300040E050E0BA0188E190E00E947D2D0C94AC
:10444000BC210C94C321682F8EE090E00C946B2D5E
:10445000FC01329680912B01882331F08091770303
:1044600087FF02C09EE101C096E080E0915028F0F5
:1044700021912223D9F38F5FF9CF0895662351F15B
:1044800020912B012223E9F02091770327FF19C007
:10449000462F4695469546954E31E0F4677021E0EB
:1044A00030E002C0220F331F6A95E2F7FC01E40FEF
:1044B000F11D828190E02823392381E0232B69F4C8
:1044C00009C0FC01329608962191621729F0E8177D
:1044D000F907D1F780E0089581E008959C01FC017F
:1044E00032969FEF80E04191461789F09F3F19F483
:1044F000411101C0982F8F5F8630A9F79F3F39F097
:10450000F901E90FF11D97FDFA9562830895089569
:104510009C012A5F3F4FFC014281461301C0128279
:10452000019682179307B9F70895262F26952695A9
:1045300026952E3168F4FC01E20FF11D677021E031
:1045400030E001C0220F6A95EAF78281282B22838E
:104550000895262F2695269526952E3170F4FC0178
:10456000E20FF11D677021E030E001C0220F6A9573
:10457000EAF72095828128232283089520912B0138
:10458000222329F02091770327FD0C9495220C9487
:104590006E2220912B01222329F02091770327FD01
:1045A0000C94A9220C94882220912B01FC013296B4
:1045B000222331F08091770387FF02C08EE101C092
:1045C00086E0DF011D928A95E9F7089508950C941D
:1045D000E6220C94E622CF930E94E9220E949E06D6
:1045E0000E94E722C0E08C2F0E944406892B29F408
:1045F000CF5FC630C1F780E001C081E0CF91089560
:104600000C94E6220C94002380917D03843009F4FD
:104610002EC00E94022380E00E94C51280E00E940A
:104620002B040E94B20F1092020320E488E190E074
:104630000FB6F894A895809360000FBE2093600099
:1046400083B7817F846083BF83B7816083BF7894A1
:10465000889583B78E7F83BF0FB6F894A895809115
:104660006000886180936000109260000FBE089522
:104670000C94E6220E94E81A0E94B6110E9490153E
:104680000E942B040E947E100C9438231F920F92DC
:104690000FB60F9211248F939F93AF93BF93809186
:1046A0000203811113C08091730390917403A09150
:1046B0007503B09176034196A11DB11D80937303DC
:1046C00090937403A0937503B0937603BF91AF9159
:1046D0009F918F910F900FBE0F901F90189582E0C1
:1046E00084BD93E095BD9AEF97BD80936E000895C9
:1046F0002FB7F8948091730390917403A091750380
:10470000B09176032FBF08952FB7F894609173038B
:104710007091740380917503909176032FBF089573
:104720009C014FB7F8948091730390917403A0910A
:104730007503B09176034FBF821B930B0895789455
:104740001F920F920FB60F9211248F939F93AF93E6
:10475000BF938091730390917403A0917503B091FE
:1047600076030196A11DB11D80937303909374038A
:10477000A0937503B0937603BF91AF919F918F91F2
:104780000F900FBE0F901F90189581E08093E0006E
:1047900080E28093D8001092C9008FE19EE40197D7
:1047A000F1F700C0000087E090EBDC018093860306
:1047B00090938703A0938803B09389039CE088E1DA
:1047C0000FB6F894A895809360000FBE9093600098
:1047D000FFCF9093D1018093D0010895AF92BF9203
:1047E000CF92DF92EF92FF920F931F93CF93C0E08F
:1047F000CC24C394D12CE82EF12C8C2F0E9444069B
:104800005C0100E010E0C601002E02C0880F991F75
:104810000A94E2F78A219B21892B31F40F5F1F4F05
:104820000031110581F70AC0602F7C2F80E00E94C3
:104830003804E816F90691F781E004C0CF5FC6306E
:10484000E1F680E0CF911F910F91FF90EF90DF9004
:10485000CF90BF90AF900895CF93C82F8CE20E9465
:10486000EE23882321F08C2FCF910C94EE2380E04F
:10487000CF910895CF930E946721811102C00E94B9
:104880002122C5E6C15049F00E949E068FE39CE9B3
:104890000197F1F700C00000F5CF89E20E942C24B7
:1048A00081112AC18AE20E942C2481110E942122B6
:1048B00085E00E942C2481110E94C5230E94722150
:1048C0008093010387E00E942C248823A9F18BE1C7
:1048D0000E942C24882351F08091010381FB222720
:1048E00020F991E0922790FB81F90EC08EE00E94A2
:1048F0002C24882361F08091010382FB222720F978
:1049000091E0922790FB82F98093010315C080E12A
:104910000E942C2490910103882341F093FB2227CD
:1049200020F981E0822780FB93F904C0892F8095CC
:1049300080FB90F990930103809101030E947621FE
:104940000E948421909378038093770380EE0E94E5
:104950002C24882341F080917703982F909590FB29
:1049600080F98093770389E30E942C24882359F0EF
:104970008091770381FB222720F991E0922790FB19
:1049800081F98093770382EE0E942C24882359F0CA
:104990008091770382FB222720F991E0922790FBF8
:1049A00082F98093770386EE0E942C24882359F0A5
:1049B0008091770383FB222720F991E0922790FBD7
:1049C00083F98093770383EE0E942C24882359F087
:1049D0008091770384FB222720F991E0922790FBB6
:1049E00084F98093770385E30E942C24882359F06F
:1049F0008091770385FB222720F991E0922790FB95
:104A000085F98093770381E30E942C24882359F051
:104A10008091770386FB222720F991E0922790FB73
:104A200086F98093770381E10E942C24882359F032
:104A30008091770387FB222720F991E0922790FB52
:104A400087F98093770380917703909178030E9490
:104A5000952187E20E942C24C82F8EE10E942C24ED
:104A60008111C2608FE10E942C248111C46080E218
:104A70000E942C248111C86081E20E942C248111A3
:104A8000C06182E20E942C248111C06283E20E94F4
:104A90002C248111C06484E20E942C24882311F00C
:104AA000C06802C0CC2329F08C2F0E947F216C2F7C
:104AB00003C00E947B21682F70E080E090E00E949C
:104AC000DE1E6091D4027091D5028091D602909141
:104AD000D7020E94161F8FE00E942C24882319F011
:104AE00081E00E94232285E10E942C24882321F06A
:104AF00080E0CF910C942322CF91089580912303DD
:104B00000895CF93DF9300D01F92CDB7DEB7909179
:104B10007D03943019F589837B836A8382E08093D7
:104B2000E9008FEF9091E800815095FD06C095ED6A
:104B30009A95F1F700008111F5CF8091E80085FF8B
:104B40000DC040E050E063E070E0CE0101960E94AD
:104B5000B3278091E8008E778093E8000F900F9044
:104B60000F90DF91CF910895BC0184E00C948125D2
:104B7000BC0183E00C94812522E02093E9002FEF13
:104B80003091E800215035FD06C035ED3A95F1F73A
:104B900000002111F5CF2091E80025FF0BC040E077
:104BA00050E066E070E00E94B3278091E8008E77C5
:104BB0008093E8000895CF93DF9320912B01222367
:104BC00039F02091770327FF03C060E222E002C0A2
:104BD00068E021E02093E9002FEF3091E8002150B8
:104BE00035FD06C035ED3A95F1F700002111F5CFFE
:104BF0002091E80025FF1DC0EC0180912B0181115F
:104C000005C040E050E068E070E003C070E040E0C4
:104C100050E0CE010E94B3278091E8008E77809308
:104C2000E80080E2FE01A3E0B3E001900D928A95D6
:104C3000E1F7DF91CF91089580917C03811109C044
:104C40000E9444290E94A1298091E20084608093FF
:104C5000E200089510927C03089508950895089540
:104C600042E061EC81E00E94BD2842E261EC82E01A
:104C70000C94BD2880917F03833009F460C030F428
:104C8000813071F0823009F499C008958A3009F4B6
:104C900085C08B3009F46BC0893009F0A7C020C0F3
:104CA00080917E03813A09F0A1C08091E800877F5E
:104CB0008093E8008091820390918303892B21F4F3
:104CC00060E283E093E003C060E080E090E070E0A9
:104CD0000E94FE278091E8008B778093E80008957A
:104CE00080917E03813209F081C08091820390918E
:104CF0008303029708F07AC08091E800877F809351
:104D0000E8008091E80082FD05C080917D0381115B
:104D1000F8CF6CC02091F3008091F20090E0922BCC
:104D2000029729F48091F1008B7F813021F48091EA
:104D3000F100809323038091E8008B7753C080912A
:104D40007E03813A09F052C08091820390918303DF
:104D5000892B09F04BC08091E800877F8093E800A1
:104D60008091E80080FFFCCF80912B0136C08091BC
:104D70007E038132D9F58091820390918303892B40
:104D8000A9F58091E800877F8093E8000E94F228CF
:104D90008091800380932B010C94E81A80917E030C
:104DA000813221F58091E800877F8093E8000E949E
:104DB000F2288091810380932403089580917E03DB
:104DC000813AA1F48091E800877F8093E800809188
:104DD000E80080FFFCCF809124038093F100809154
:104DE000E8008E778093E8000C94F228089584B749
:104DF000877F84BF0FB6F894A89580916000886182
:104E000080936000109260000FBE90E080E80FB6C3
:104E1000F89480936100909361000FBE0E941B166E
:104E20000E9444290E94A1298091E200846080931D
:104E3000E20078940E94362C0E94251681E291E0CF
:104E40000E948B1580917D038530A9F480917D03AC
:104E5000853079F40E94042380917B038823B1F389
:104E60000E94EB22882391F30E949D270E94E81A5A
:104E7000EDCF0E943A230E9431160E940F160E9425
:104E80000E16E0CF0C944427292F33272330310509
:104E9000C9F060F42130310581F02230310509F08C
:104EA00044C08BE390E028EE34E043C0213231056A
:104EB000E1F02232310549F138C082E190E023E28D
:104EC00035E037C099278130910549F028F00297E5
:104ED00061F5EEEBF4E005C0E4EEF4E002C0ECECCA
:104EE000F4E0849190E09F0124C06115710541F0C8
:104EF00061307105D1F489E090E023E135E019C01B
:104F000089E090E02AEF34E014C06115710541F0AA
:104F10006130710551F486EB90E025E335E009C07E
:104F200080E490E02BEE35E004C080E090E020E0EB
:104F300030E0FA0131832083089580E189BD82E168
:104F400089BD09B400FEFDCF8091D8008F7D80938C
:104F5000D8008091E00082608093E0008091E000C2
:104F600081FDFCCF0895CF92DF92EF92FF920F93D5
:104F70001F93CF93DF93EC018B017A010E941129DB
:104F8000811133C0E114F10439F0F701808191817E
:104F9000081B190BC80FD91FC12CD12C01151105E5
:104FA00019F18091E80085FD16C08091E8008E77A8
:104FB0008093E800E114F10449F0F70180819181C8
:104FC000C80ED91ED182C08285E00FC00E9411296F
:104FD000882321F30AC089918093F10001501109BF
:104FE000FFEFCF1ADF0ADACF80E0DF91CF911F9178
:104FF0000F91FF90EF90DF90CF9008952091840360
:10500000309185032617370748F06115710539F48B
:105010002091E8002E772093E80001C0B901FC013F
:1050200020E06115710579F180917D038823F1F10C
:105030008530F1F18091E80083FD3CC08091E8006B
:1050400082FD2EC08091E80080FFEBCF2091F3001D
:105050008091F20090E0922B6115710551F088303B
:10506000910538F421912093F10061507109019666
:10507000F3CF21E0089709F020E08091E8008E77D7
:105080008093E800CECF2111CFCF0AC080917D035D
:10509000882361F0853061F08091E80083FD0AC0CB
:1050A0008091E80082FFF2CF80E0089582E00895C9
:1050B00083E0089581E00895209184033091850371
:1050C0002617370748F06115710539F42091E8007B
:1050D0002E772093E80001C0B901FC0120E06115A2
:1050E000710591F180917D03882309F440C08530DA
:1050F00009F43FC08091E80083FD3DC08091E80045
:1051000082FD2FC08091E80080FFE9CF2091F3005D
:105110008091F20090E0922B6115710559F0883072
:10512000910540F424912093F1003196615071096A
:105130000196F2CF21E0089709F020E08091E80085
:105140008E778093E800CBCF2111CCCF0AC080911D
:105150007D03882361F0853061F08091E80083FD54
:105160000AC08091E80082FFF2CF80E0089582E0DB
:10517000089583E0089581E00895982F973068F5A9
:105180009093E900981739F07091EC002091ED00B0
:105190005091F00003C0242F762F50E021FD02C073
:1051A0009F5FECCF3091EB003E7F3093EB0030916E
:1051B000ED003D7F3093ED003091EB003160309396
:1051C000EB007093EC002093ED005093F0002091E1
:1051D000EE0027FDE5CF80E008958F708093E90011
:1051E00081E0089580917E0387FF11C08091E800DF
:1051F00082FD05C080917D038111F8CF11C080919F
:10520000E8008B770BC080917D03882349F0809163
:10521000E80080FFF8CF8091E8008E778093E80067
:1052200008952091E4003091E50095E64091EC006E
:10523000842F817040FF23C08091E80080FD1DC055
:1052400080917D03882399F0853099F08091EB005F
:1052500085FD11C04091E4005091E5002417350709
:1052600029F3915011F09A01E1CF84E0089582E092
:10527000089583E0089581E0089580E008954091C5
:10528000E80042FFDDCF08950E94B2290E94BA29AA
:10529000E0EEF0E0808181608083E8EDF0E08081E5
:1052A0008F77808319BCA7EDB0E08C918E7F8C93B3
:1052B00080818F7E808310927C0308950F931F93CB
:1052C000CF93DF930E94B2290E94BA29C8EDD0E0A3
:1052D00088818F77888388818068888388818F7DA3
:1052E000888319BC10927D031092790310927B037E
:1052F00010927A0300EE10E0F80180818B7F8083AA
:1053000088818160888342E060E080E00E94BD285F
:10531000E1EEF0E080818E7F8083E2EEF0E080813C
:1053200081608083808188608083F80180818E7FA6
:105330008083888180618883DF91CF911F910F9155
:105340000895E8EDF0E080818F7E8083E7EDF0E066
:1053500080818160808384E082BF81E080937C03D0
:105360000C945E29E8EDF0E080818E7F80831092BE
:10537000E20008951092DA001092E10008951F9261
:105380000F920FB60F9211242F933F934F935F9379
:105390006F937F938F939F93AF93BF93EF93FF93FD
:1053A0008091E10082FF0BC08091E20082FF07C084
:1053B0008091E1008B7F8093E1000E94352C8091E9
:1053C000DA0080FF1FC08091D80080FF1BC0809151
:1053D000DA008E7F8093DA008091D90080FF0DC0C3
:1053E00080E189BD82E189BD09B400FEFDCF81E085
:1053F00080937D030E941C2605C019BC10927D037A
:105400000E942A268091E10080FF19C08091E2006D
:1054100080FF15C08091E2008E7F8093E200809132
:10542000E20080618093E2008091D80080628093E6
:10543000D80019BC85E080937D030E942E268091C0
:10544000E10084FF30C08091E20084FF2CC080E145
:1054500089BD82E189BD09B400FEFDCF8091D800ED
:105460008F7D8093D8008091E1008F7E8093E10052
:105470008091E2008F7E8093E2008091E200816063
:105480008093E20080917903882311F084E007C0C3
:105490008091E30087FD02C081E001C083E080933A
:1054A0007D030E942F268091E10083FF29C0809117
:1054B000E20083FF25C08091E100877F8093E100B7
:1054C00082E080937D03109279038091E1008E7FCA
:1054D0008093E1008091E2008E7F8093E2008091D2
:1054E000E20080618093E20042E060E080E00E94A0
:1054F000BD288091F00088608093F0000E942D26E6
:10550000FF91EF91BF91AF919F918F917F916F919B
:105510005F914F913F912F910F900FBE0F901F9071
:1055200018951F920F920FB60F9211242F933F934D
:105530004F935F936F937F938F939F93AF93BF939B
:10554000CF93DF93EF93FF93C091E900CF708091E9
:10555000EC00D82FD17080FDD0E81092E900809146
:10556000F000877F8093F00078940E94D52A1092F3
:10557000E9008091F00088608093F000CD2BCF701F
:10558000C093E900FF91EF91DF91CF91BF91AF916F
:105590009F918F917F916F915F914F913F912F914B
:1055A0000F900FBE0F901F9018951F93CF93DF930E
:1055B000CDB7DEB7AA970FB6F894DEBF0FBECDBF4A
:1055C000EEE7F3E08091F100819323E0E638F20703
:1055D000C9F70E943A268091E80083FF2EC180918E
:1055E0007E0390917F03492F50E04A30510508F027
:1055F00024C1FA01E857FF4F0C94B72C803821F0F2
:10560000823809F01AC108C080917A0390917B0317
:10561000992389F082600FC0809182038F70873058
:1056200008F00BC18093E9008091EB0085FB88278F
:1056300080F91092E9009091E800977F9093E8003C
:105640008093F1001092F100D1C0282F2D7F09F036
:10565000F4C0882319F0823061F0EFC0809180039C
:10566000813009F0EAC0933009F080E080937B0339
:105670002EC08091800381112AC0809182038F7097
:105680002FEF280F263008F0D8C08093E900209132
:10569000EB0020FF1CC0933021F48091EB0080626E
:1056A00014C09091EB0090619093EB0021E030E00A
:1056B000A90102C0440F551F8A95E2F74093EA0002
:1056C0001092EA008091EB0088608093EB001092CA
:1056D000E9008091E800877F8093E8000E94F2282B
:1056E000ACC08111AAC0109180031F778091E300A4
:1056F0008078812B8093E3008091E800877F8093FE
:10570000E8000E94F2288091E80080FFFCCF8091A1
:10571000E30080688093E300111102C082E001C0C1
:1057200083E080937D0389C08058823008F085C073
:1057300080918003909181038C3D53E0950779F52A
:1057400083E08A838AE289834FB7F894DE01139657
:1057500020E03EE051E2E32FF0E050935700E49167
:1057600020FF03C0E295EF703F5FEF708E2F90E057
:10577000EA3010F0C79601C0C0968D939D932F5FBD
:10578000243149F74FBF8091E800877F8093E8007C
:105790006AE270E0CE0101960E94FE2716C0609179
:1057A000820370918303AE014F5F5F4F0E944227D7
:1057B000BC01892B09F441C09091E800977F909338
:1057C000E80089819A810E945C288091E8008B77AB
:1057D0008093E80032C0803881F58091E800877FAF
:1057E0008093E800809179038093F1008091E80034
:1057F0008E7772CF811121C08091800390918103B7
:1058000099270297D4F48091E800877F8093E8007D
:1058100080918003809379030E94F228809179031C
:10582000811106C08091E30087FD02C081E001C0C4
:1058300084E080937D030E9430268091E80083FFFE
:105840000AC08091E800877F8093E8008091EB0098
:1058500080628093EB00AA960FB6F894DEBF0FBE6D
:10586000CDBFDF91CF911F9108950895CF9380917F
:105870007D038823A1F0C091E900CF709091EC00E6
:10588000892F817090FD80E8C82B1092E9008091EB
:10589000E80083FD0E94D52ACF70C093E900CF9124
:1058A0000895DB018F939F930E94DB2CBF91AF91F2
:1058B000A29F800D911DA39F900DB29F900D11246A
:1058C0000895991B79E004C0991F961708F0961B5C
:1058D000881F7A95C9F780950895AA1BBB1B51E1D3
:1058E00007C0AA1FBB1FA617B70710F0A61BB70B50
:1058F000881F991F5A95A9F780959095BC01CD01F5
:10590000089597FB072E16F4009407D077FD09D071
:105910000E946D2C07FC05D03EF4909581959F4F19
:105920000895709561957F4F0895A1E21A2EAA1BE4
:10593000BB1BFD010DC0AA1FBB1FEE1FFF1FA2173F
:10594000B307E407F50720F0A21BB30BE40BF50B3C
:10595000661F771F881F991F1A9469F760957095C5
:10596000809590959B01AC01BD01CF010895EE0F8C
:10597000FF1F0590F491E02D09940E94C52C33235C
:1059800012F48A1B9B0B0C94D62CA29FB001B39FE0
:10599000C001A39F700D811D1124911DB29F700D38
:1059A000811D1124911D08950E94C52CB7FF0895F3
:1059B000821B930B08950E94C52CA59F900DB49F48
:1059C000900DA49F800D911D11240895B7FF0C9494
:1059D000DB2C0E94DB2C821B930B08958F929F92ED
:1059E000AF92BF92CF92DF92EF92FF92CF93DF936D
:1059F000EC01688179818A819B816115710581053E
:105A0000910521F464E279ED8BE597E02DE133EF28
:105A100041E050E00E949F2D49015A019B01AC01D9
:105A2000A7EAB1E40E94DB2C6B017C01ACEEB4EF81
:105A3000A50194010E94E92CDC01CB018C0D9D1D78
:105A4000AE1DBF1DB7FF03C00197A109B0488883F1
:105A50009983AA83BB839F77DF91CF91FF90EF90CB
:105A6000DF90CF90BF90AF909F908F9008950E944D
:105A7000EE2C089580E091E00E94EE2C0895A0E0C5
:105A8000B0E08093000190930101A0930201B093D4
:105A900003010895FC014150504030F0019006167A
:105AA000D1F73197CF010895882799270895F9995B
:105AB000FECF92BD81BDF89A992780B50895A6E1E1
:105AC000B0E044E050E00C94912DA8E1B0E042E059
:105AD00050E00C94912D262FF999FECF92BD81BDF7
